:020000041000EA
:1000000000B5324B212058609868022188439860DF
:10001000D860186158612E4B002199600221596106
:100020000121F02299502B49196001219960352056
:1000300000F044F80222904214D00621196600F024
:1000400034F8196E01211966002018661A6600F04E
:100050002CF8196E196E196E052000F02FF8012189
:100060000842F9D1002199601B49196000215960AB
:100070001A491B48016001219960EB211966A021F2
:10008000196600F012F800219960164914480160C1
:100090000121996001BC002800D000471248134993
:1000A000086003C880F30888084703B5996A0420EC
:1000B0000142FBD001200142F8D103BD02B5186610
:1000C0001866FFF7F2FF186E186E02BD00000240BE
:1000D000000000180000070000035F00212200005C
:1000E000F4000018222000A00001001008ED00E03C
:1000F00000000000000000000000000074B24E7A12
:1001000000000420E3010010C3010010E903001007
:10011000C1010010C1010010C1010010C101001097
:10012000C1010010C1010010C10100104503001001
:10013000C1010010C1010010C9030010D503001057
:10014000CD010010CD010010CD010010CD01001037
:10015000CD010010CD010010CD010010CD01001027
:10016000CD010010CD010010CD010010CD01001017
:10017000CD010010CD010010CD010010CD01001007
:10018000CD010010CD010010CD010010CD010010F7
:10019000CD010010CD010010CD010010CD010010E7
:1001A000CD010010CD010010CD010010CD010010D7
:1001B000CD010010CD010010CD010010CD010010C7
:1001C00000BE00BE00BE00BE00BE00BE00F03FF894
:1001D000103800BE00202049086006C881F3088856
:1001E00010471E48006800282DD10CA40ECC002911
:1001F00002D000F010F8F9E719491A4A002000E08F
:1002000001C19142FCD1184988471849884700BE6E
:10021000FDE701C901C29A42FBD37047D48E011099
:10022000C00000201C1000203C9E01100000042093
:10023000000004203C9E0110001004200010042047
:100240000000000070470A480EF0FCFD0047EFF385
:100250000580C0B27047000008ED00E0000000D04B
:100260002810002004BA0020CD02001089CE001012
:1002700057560000F8B5C046F8BC08BC9E4670470B
:10028000F8B5C04610B5064C2378002B07D1054BB6
:10029000002B02D0044800E000BF0123237010BDF2
:1002A000781500200000000084020010044B10B5F7
:1002B000002B03D00349044800E000BF10BDC04636
:1002C000000000007C15002084020010164B002B5B
:1002D00000D1144B9D46402292029A1A9246002168
:1002E0008B460F461348144A121A10F0A9FD0F4B03
:1002F000002B00D098470E4B002B00D098470020D1
:10030000002104000D000D48002802D00C480CF01C
:10031000BEFD10F017F92000290008F0DBFF0CF0FB
:10032000B3FDC046000008000000042000000000EB
:10033000359200102810002004BA00208FCE001043
:10034000000000007046C0082CD3EFF309808169DB
:1003500002390978002929D101B50FC8B8470CBC6A
:1003600003C29E461E4B06CB91421ED0083B1A602C
:10037000002909D0EFF3098020388863F0C0444693
:100380004D4656465F46F0C0906B1030F0C8A04610
:10039000A946B246BB4680F309882038F0C802203F
:1003A000C0430047EFF30880D1E770470D4A136858
:1003B0009942FAD801B5890053589C460FC8E047C6
:1003C0000CBC10609E46704701B508F02DFA03BCC6
:1003D0008E46C7E701B508F0E5F903BC8E46C1E7D4
:1003E000480400207C6B0110102304E0202302E06D
:1003F000302300E040239C46F0B404AE7546E80884
:1004000001D3EFF309860E4F0FCE0FC70FBC0FC7F6
:100410004046494652465B460FC71DCE3100A60AEC
:1004200000D304316E0900D248311FC7EFF30980B1
:100430006946EFF3148663C7604601490CF0C0F8C3
:1004400074B9002001480421014B184730060020F0
:1004500055EE001002B4714649084900095649009A
:100460008E4402BC7047C04602B471464908490038
:10047000095C49008E4402BC7047C0460022430814
:100480008B4274D303098B425FD3030A8B4244D35C
:10049000030B8B4228D3030C8B420DD3FF2209029E
:1004A00012BA030C8B4202D31212090265D0030B5D
:1004B0008B4219D300E0090AC30B8B4201D3CB0353
:1004C000C01A5241830B8B4201D38B03C01A524195
:1004D000430B8B4201D34B03C01A5241030B8B4297
:1004E00001D30B03C01A5241C30A8B4201D3CB0282
:1004F000C01A5241830A8B4201D38B02C01A524167
:10050000430A8B4201D34B02C01A5241030A8B4269
:1005100001D30B02C01A5241CDD2C3098B4201D381
:10052000CB01C01A524183098B4201D38B01C01AFF
:10053000524143098B4201D34B01C01A5241030976
:100540008B4201D30B01C01A5241C3088B4201D325
:10055000CB00C01A524183088B4201D38B00C01AD2
:10056000524143088B4201D34B00C01A5241411AF9
:1005700000D20146524110467047FFE701B5002006
:1005800000F0F0F802BDC0460029F7D076E77047CA
:1005900003460B437FD4002243088B4274D30309E4
:1005A0008B425FD3030A8B4244D3030B8B4228D385
:1005B000030C8B420DD3FF22090212BA030C8B42AB
:1005C00002D31212090265D0030B8B4219D300E04B
:1005D000090AC30B8B4201D3CB03C01A5241830BD0
:1005E0008B4201D38B03C01A5241430B8B4201D380
:1005F0004B03C01A5241030B8B4201D30B03C01AA9
:100600005241C30A8B4201D3CB02C01A5241830A22
:100610008B4201D38B02C01A5241430A8B4201D351
:100620004B02C01A5241030A8B4201D30B02C01A7B
:100630005241CDD2C3098B4201D3CB01C01A5241E2
:1006400083098B4201D38B01C01A524143098B426B
:1006500001D34B01C01A524103098B4201D30B0154
:10066000C01A5241C3088B4201D3CB00C01A524179
:1006700083088B4201D38B00C01A524143088B423E
:1006800001D34B00C01A5241411A00D201465241D7
:10069000104670475DE0CA0F00D04942031000D3F6
:1006A0004042534000229C4603098B422DD3030A4B
:1006B0008B4212D3FC22890112BA030A8B420CD35B
:1006C000890192118B4208D3890192118B4204D384
:1006D00089013AD0921100E08909C3098B4201D304
:1006E000CB01C01A524183098B4201D38B01C01A3E
:1006F000524143098B4201D34B01C01A52410309B5
:100700008B4201D30B01C01A5241C3088B4201D363
:10071000CB00C01A524183088B4201D38B00C01A10
:100720005241D9D243088B4201D34B00C01A5241E7
:10073000411A00D20146634652415B10104601D374
:100740004042002B00D54942704763465B1000D3FE
:10075000404201B5002000F005F802BD0029F8D0A4
:1007600016E770477047C046D0400B1CD1409C46EE
:10077000203AD3401843524263469340184370478F
:100780009140031C90409C46203A934019435242AA
:100790006346D340194370478446101C62468C461A
:1007A000191C634600E0C0461FB501F05DFC00283F
:1007B00001D40021C8421FBD10B501F0B5FB404275
:1007C000013010BD10B501F04FFC002801DB002006
:1007D00010BD012010BDC04610B501F045FC002839
:1007E00001DD002010BD012010BDC04610B501F094
:1007F000D7FB002801DC002010BD012010BDC04641
:1008000010B501F0CDFB002801DA002010BD012059
:1008100010BDC0468446081C6146FFE71FB500F0C6
:1008200079FB002801D40021C8421FBD10B500F09B
:10083000FBFA4042013010BD10B500F06BFB002800
:1008400001DB002010BD012010BDC04610B500F036
:1008500061FB002801DD002010BD012010BDC04655
:1008600010B500F009FB002801DC002010BD0120BC
:1008700010BDC04610B500F0FFFA002801DA0020D4
:1008800010BD012010BDC0461C2101231B0498424D
:1008900001D3000C10391B0A984201D3000A083911
:1008A0001B09984201D30009043902A2105C4018C8
:1008B0007047C0460403020201010101000000006C
:1008C00000000000002B15D1002A13D1002906DBFF
:1008D00001DC002806D00020C043410802E080214E
:1008E0000906002007B4024801A14018029003BD88
:1008F00075FEFFFF03B4684601B5029800F066F983
:10090000019B9E4602B00CBC7047C046002B11D123
:10091000002A0FD1002900D1002802D00021C943AC
:10092000081C07B4024802A14018029003BDC0464B
:1009300035FEFFFF03B4684601B5029800F084F865
:10094000019B9E4602B00CBC7047C046F0B5CE4637
:10095000474615042D0C2E0080B50704140C3F0CDF
:100960009946030C7E435D43674363437F19340C10
:10097000E4199C46A54203D980235B029846C444EF
:100980004B4643435143250C36046544360C24043E
:10099000A4195B19591820000CBC90469946F0BD6B
:1009A00070B500220C4B04000D00FFF729FF002852
:1009B00004D12000290002F095F970BD064B0022F9
:1009C0002000290001F02AFE02F08CF980231B068A
:1009D0009C466044F1E7C0460000E04110B50021AC
:1009E000041CFFF729FF002803D1201C00F00CF89D
:1009F00010BD80231B06E01800F006F802000B0073
:100A0000002150429941F3E770B502F00DFA00223F
:100A10000B4B0D00040001F08FFBFFF7C1FF060038
:100A200002F0D0F90022074B01F086FB02000B0018
:100A30002000290001F0F2FDFFF7B2FF310070BD88
:100A40000000F03D0000F041F0B54F464646D64666
:100A5000C0B5040082B00D00914698468B422FD855
:100A60002CD04146484602F0B5FA29000600200085
:100A700002F0B0FA331A9C46203B9A4600D576E045
:100A80004B46524693401F004B46624693401E0021
:100A9000AF4228D825D05346A41BBD41002B00DA15
:100AA0007BE00022002300920193012352469340F1
:100AB0000193012362469340009318E08242D0D90B
:100AC00000220023009201930A9B002B01D01C609E
:100AD0005D600098019902B01CBC90469946A24600
:100AE000F0BDA342D7D900220023009201936346B0
:100AF000002BE9D0FB079846414672080A437B0861
:100B000066460EE0AB4201D1A2420CD8A41A9D4128
:100B1000012024196D410021013E24184D41002E71
:100B200006D0AB42EED9013E24196D41002EF8D11A
:100B300000980199534600196941002B23DB2B00D3
:100B40005246D3402A006446E2401C00534615003A
:100B5000002B2DDB26005746BE403300260067469B
:100B6000BE403200801A994100900191ACE7624684
:100B700020239B1A4A46DA406146130042468A40C7
:100B800017001F4380E7624620239B1A2A0066460F
:100B90009A402300F3401343D4E762462023002108
:100BA0009B1A0022009101920122DA40019280E713
:100BB0002023624626009B1ADE402F00B046664680
:100BC000B74046463B003343C8E7C046F0B583B064
:100BD00016001F000090019102F008FA04000D00B9
:100BE00002000B0030003900FFF7B0FE009A019BB5
:100BF000121A8B41089920000A604B60290003B04B
:100C0000F0BDC046F8B557464E464546DE4644025E
:100C1000E0B546008846640A360EC70F002E63D042
:100C2000FF2E24D08023E400DB041C4300239946DC
:100C30009B467F3E434642465D02D20F5B006D0AF3
:100C40001B0E9046924665D0FF2B55D08022002186
:100C5000ED00D2047F3B1543F61A43464A467B40DB
:100C60000F2A00D98DE06D48920082589746002CDB
:100C700054D108239946063BFF269B46DAE7002518
:100C8000534602291BD0032900D1BFE0012928D0F7
:100C900030007F30002820DD6A0704D00F222A4070
:100CA000042A00D004352A0103D530005C4A803084
:100CB0001540FE2803DCAC01640AC2B201E0FF2249
:100CC00000246402D205600ADB07104318433CBCD1
:100CD00090469946A246AB46F8BD0122101A1B2841
:100CE0007CDD00220024ECE7002C1DD10423994672
:100CF000033B00269B469DE7FF3E002D20D10221AD
:100D000043464A467B400A430F2AD8D845489200BA
:100D100082589746002D19D10121F1E70C239946FD
:100D2000093BFF269B4685E72000FFF7ADFD7626B1
:100D3000431F9C4000237642361A99469B4679E72A
:100D40004A4603231A439146032186E72800FFF70A
:100D50009BFD431F36189D40763600217DE7802499
:100D60000023E403FF22ACE700258023DB031C42C1
:100D700028D01D4226D12B435C02640A4346FF2241
:100D80009FE762016C01A24224D21B210025013E93
:100D9000012710006D005200002801DB944201D8A9
:100DA000121B3D4301390029F3D11400621E944106
:100DB00025436DE7BA46594625005346022900D01F
:100DC00061E77CE78023DB031C436402640A3B0089
:100DD000FF2276E7121B1A210125D9E79E362A0049
:100DE000B5402C00C240651EAC411443620704D0DC
:100DF0000F222240042A00D00434620103D4A4014B
:100E0000640A00225DE7012200245AE78024E403FB
:100E10002C436402640AFF2253E7C0465862011063
:100E2000FFFFFFF79862011070B542004E024C00C0
:100E300045026D0A120EC30F760A240EC90FFF2A4F
:100E40000FD0FF2C11D00120A24200D070BDB542BE
:100E5000FCD18B420DD0002AF8D12800451EA841B4
:100E6000F4E70120002DF1D1EBE70120002EEDD1B8
:100E7000E9E70020EAE7C04670B54A004E024502A5
:100E800044006D0A240EC30F760A120EC90FFF2C00
:100E900015D0FF2A0ED0002C15D1002A01D1002E2A
:100EA0001CD0002D14D08B4227D00220013B1840CB
:100EB000013870BD002EEED002204042F9E7002D2F
:100EC000FAD1FF2A0ED0002A0ED1002EEDD00BE071
:100ED00001230139994308000130EAE70020002D81
:100EE000E7D0E2E7002EE7D18B42DED1944205DD68
:100EF0000221581E08400138DBE70024A24204DC2E
:100F0000B542D2D80020B542D3D2581E012398430F
:100F10000130CEE730B5420044024D02C30F480015
:100F2000640A120E6D0A000EC90FFF2A12D0FF28A4
:100F30000CD0002A12D1002819D1002D17D1002C75
:100F40002BD00220013B1840013826E0002DF0D0C4
:100F5000022022E0002CFBD1FF281FD000281FD147
:100F6000002D1DD10220013B1840013815E0002C56
:100F70000ED08B42E5D10022904204DCAC42E0D896
:100F80000020AC4209D2581E01239843013004E0EE
:100F90000123013999430800013030BD002DD7D11C
:100FA0008B42CED18242E7DD0221581E0840013833
:100FB000F3E7C046F0B54E4657464546DE46E0B537
:100FC00043025B0A450083B00F1C99462D0EC60FE5
:100FD000002D57D0FF2D24D08020DB00C004184303
:100FE000002381469A469B467F3D7C027A00FB0F98
:100FF000640A120E984623D0FF2A4BD0E3008024C7
:101000000020E4047F3A1C43AD186B1C4746019353
:10101000534677403A000F2B48D87D499B00CB5868
:101020009F46002B00D085E008339A46063B9B463E
:101030007C027A00FB0FFF25640A120E9846DBD172
:10104000002C00D090E0524601231A439246012022
:10105000DBE74C4658461700022824D0032800D16D
:10106000CFE00022002301284DD15802D205400ACA
:10107000FF071043384303B03CBC90469946A24654
:10108000AB46F0BD002B5BD104239A46033B002501
:101090009B46AAE7FF35002C60D1524602231A4333
:1010A00092460220B1E7FF220023DEE74B461B0CED
:1010B0009C464B462604360C180461463300220C2D
:1010C0006446000C43434E435043544380191A0C6A
:1010D0001218964203D9802149028C4664441B04AD
:1010E0001B0C1004C01883015E1EB341800E184310
:1010F000130C1B199B0103431C00230179D5012309
:1011000062081C401443019A7F32002A4DDD6307B8
:1011100004D00F232340042B00D00434230103D533
:101120003C4B019A1C408032FE2ABCDCA3015B0AC6
:10113000D2B29AE70C239A46093BFF259B4654E717
:101140001800FFF7A1FB4A46431F76259A4000236B
:101150006D4291462D1A9A469B4646E75246032316
:101160001A439246032050E72000FFF78DFB431FF0
:101170002D1A9C40763D002047E780230027DB03A3
:10118000FF2272E7424666E74C463200584662E765
:1011900080234A46DB031A4222D01C4220D123433B
:1011A0005B025B0A4746FF225FE701239A1A1B2A6C
:1011B00021DC23000199D3409E318C401A0023008A
:1011C0005C1EA34113435A0704D00F221A40042A7D
:1011D00000D004335A0111D49B015B0A002244E77A
:1011E00080234A46DB0313435B025B0A3700FF227E
:1011F0003BE7019587E70022002336E70122002321
:1012000033E78023DB0323435B025B0AFF222CE7E7
:10121000D8620110FFFFFFF741024200C30F490AE5
:10122000120E00207E2A0DD99D2A0CD880200004A1
:101230000143952A0ADC9620821AD1404842002BAD
:1012400000D108007047034A9818FBE7963A91408E
:10125000F4E7C046FFFFFF7F70B500283DD0C317FD
:10126000C5185D40C40F2800FFF70EFB9E22121A1E
:10127000962A07DCD2B2082833DD08388540680298
:10128000400A23E0992A0BDD052329001B1AD940C7
:1012900003001B339D402B005D1EAB4119430D0025
:1012A000052801DD431F9D402B000F490B406E07B1
:1012B00009D00F263540042D05D004335D0102D539
:1012C0009F220B40121A9B01580AD2B24002D2054B
:1012D000400AE4071043204370BD00240022002090
:1012E000F4E76802400AF1E7FFFFFFFBF0B54F4665
:1012F0004646D6460C000903C0B5490A470F5E00B2
:1013000039431F03DB0F9C4665007B0A570F1F43C1
:101310006D0DE40F760DA146C000B846D200AB1BA0
:1013200064457BD0002B5FDD002E00D0A4E03E00A2
:10133000164300D112E15E1E002E00D09EE1871AF6
:101340004346B84280410125C91A4042091A0B029E
:1013500000D431E149024E0A002E00D16EE1300086
:10136000FFF792FA0300083B1F2B00DD61E120220A
:101370003900D21A9E40D1409F400E439D4200DD6D
:1013800051E15D1B6B1C1F2B00DD7CE12021C91A84
:101390003D0030008F408840DD40791E8F41310094
:1013A00007222843D940002507433A40002A09D0A4
:1013B0000F233B40042B05D03B1DBB42BF417F4266
:1013C000C9191F000B0200D426E26A1CC64B550542
:1013D0006D0D9A4200D106E1C44AFF080A40530746
:1013E00052023B43120B8EE0002B00D0B8E06B1C86
:1013F0005B055B0D012B00DC30E1871A4346B842E8
:10140000B641CB1A76429E1B330200D54CE13B001D
:101410003343A1D100220024002570E0002B00DC22
:10142000E5E0002E00D183E0AF4EB54260D08026CB
:1014300036043743B846382B00DC3EE143461343BD
:101440001F007A1E97413F18874280414042091889
:101450000B0200D4B0E0A44B01359D4200D1C3E0A3
:10146000A24A7B080A4001210F401F435108D307BD
:1014700007221F433A4099E79B4EB54238D0802659
:1014800036043743B846382B00DDDCE01F2B00DC88
:1014900030E11E004746203EF740BC46202B04D0DA
:1014A0004026F31A46469E403243170063467A1E92
:1014B00097411F43CCE0002B00D104E24346134385
:1014C00000D159E14B07C00818438023C9081B030A
:1014D000194208D04546ED081D4204D14346D008C4
:1014E000590708432900420FC9007F4D1143C0002E
:1014F0004B07CA087C49C00803438D4268D01203D9
:101500006D05120B6D0D002112031800130B0A0D4F
:1015100012051A43764B2D0513402B435B00E4075D
:101520005B08234319001CBC90469946A246F0BDB7
:101530003E00164312D05E1E002E00D000E1871838
:101540008742804141444042091801250B0233D5AE
:10155000022585E764463300414610001D00C7E7B9
:10156000002D00D0DAE00C000443F3D05C1C00D165
:101570009FE15D4CA64200D12FE1DB43382B00DD1B
:1015800066E11F2B00DD83E120240500E41A0F0033
:10159000DD40D940A0404346A7405B1A441EA0410D
:1015A00098462F433843171ABA4292414346524253
:1015B000991A64463500CAE607223A40002A00D04C
:1015C000F6E64B07CA084849FF083B438D4296D1CF
:1015D0001900114300D19EE1802109030A4312033F
:1015E000120B414D8FE71500002200238BE7002BE3
:1015F00000D0C7E06B1C5F057F0D012F00DCF1E020
:10160000394DAB4200D1B9E085180A0085428941C5
:101610004244494251180722CF076D082F43490819
:101620003A401D00C2E607223049ED1A31403A40E7
:10163000BCE63E002838864000279FE63800FFF7CA
:1016400023F920308EE6434613431F007A1E97414C
:10165000C71BB84280414042091A78E60E003B00A1
:1016600006431343002D61D1002E00D0F4E0002B7F
:1016700000D11BE164463900100039E71A4FBB4224
:101680007AD03300FFE630001F3DE840202B03D026
:101690004021CB1A9E4037437B1E9F4107220743C0
:1016A0003A400021002589E7171A4346BA42B6415D
:1016B000591A76428E1B64464EE61F2B00DDADE0C4
:1016C00020264746F61AB740B9461700B246DF4013
:1016D0004E463E4337005646B240561EB24117436F
:1016E0004246DA408918AEE6FF070000FFFF7FFFA1
:1016F000FFFF0F8020264746F61AB740B94617006D
:10170000B246DF404E463E4337005646B240561E74
:10171000B24117434246DA40891A99E77F4CA64204
:101720005BD0802424045B42214327E7002E0CD1A8
:10173000002B00D1CBE0644639001000774DD7E68E
:10174000764FBB4218D0330075E6002B14D04B0700
:10175000C00818438023C9081B03194207D0FC089E
:101760001C4204D17907D0080843E14621004C46C9
:10177000420FC9001143C000684DB9E61D000022A8
:101780000023C0E6002D5BD10D00054300D1E2E649
:101790005D1C00D1B0E0614DAE421FD0DB43382B61
:1017A00071DC1F2B00DD96E020250F00ED1AAF4005
:1017B000B9460700AA46DF404D463D432F00554637
:1017C000A840D940451EA84188440743BF18974206
:1017D00092415142414435003AE664463500414663
:1017E000100085E60B000343002D00D063E6002BBC
:1017F000F5D04346134300D17AE6871887428041EB
:1018000007224144404209183A400B0200D4D5E671
:10181000434B01351940C9E5380069E61E004746CB
:10182000203EF740BC46202B04D04026F31A464603
:101830009E403243170063467A1E97411F4302E6DB
:10184000364DAE42CAD080252D045B422943A6E71F
:101850000843411E8841A6E6002B00D148E6871ABE
:101860004346B842B641CB1A76429E1B33024BD553
:10187000171A4346BA429241591A5242891A07220C
:1018800064463A4092E501430F00791E8F419DE77F
:101890001C000F00203CE740202B03D04024E31A1B
:1018A00099400843411E884138437CE600220024C9
:1018B00025E6171A4346BA429241591A5242891AEA
:1018C0006446350043E541461000144D10E6802281
:1018D0000024120380E61D000F00203DEF40BC46AF
:1018E000202B03D04025EB1A99400843070063469C
:1018F000781E87411F4369E7871897429B414144FF
:101900005B42C9183500A3E53B003343CED0072224
:1019100031003A4052E600231A00F4E5FF070000C8
:10192000FFFF7FFFF0B55746DE464E464546E0B521
:10193000834607000E03480085B092461C00360B14
:10194000400DCD0F002800D19DE0954B984239D035
:101950008023F6001B041E43924A7B0F33439946B3
:10196000944603006344009300230026FF00029383
:1019700023031B0B98466300E40F52465B0D019452
:1019800000D1B3E086498B4200D19EE04246D100AF
:10199000802212040A435146490F11438B46814964
:1019A00052468C4600996344CB1A0021D200009322
:1019B0002B0063409A460F2E00D905E17A4BB60002
:1019C0009B599F465B463343994600D0B8E00223BB
:1019D0000826002700900293CAE7CB463A000299F6
:1019E0000195019B9A46022927D0032900D180E264
:1019F000012944D06D49009B8C4663441C00002C97
:101A000038DD530700D013E2D2085B46DB0109D56D
:101A10005946674B19408B468021C9008C46009B74
:101A200063441C00634B9C4207DC5B4664055F0714
:101A30005B0217431B0B620D02E000230027584A8C
:101A400000211B031C0B0B0D1B05234314055A4AD5
:101A5000380013401C4353466400DB0764081C43F2
:101A6000210005B03CBC90469946A246AB46F0BD6D
:101A70000122524201231B1B382B00DCADE1002266
:101A800000230027DCE75B46334399465ED0002EF7
:101A900000D18AE13000FEF7F7FE03000B3B1C2B60
:101AA00000DD7BE11D22D31A5A460100DA400839D5
:101AB0008E4013005F46334399468F403F4B0026CC
:101AC0001B1A00930023029352E7414653460B43EF
:101AD0003B499B468C46009B634400935B46002B2E
:101AE0003BD1022300221E43022161E743461343F8
:101AF0009B4637D04346002B00D162E14046FEF7BB
:101B0000C3FE03000B3B1C2B00DD53E102004146EA
:101B1000083A914088461D21CB1A5146D9400B0006
:101B200041460B439B46534693401A00009B254970
:101B30009C46604403008C4663440093002137E7D1
:101B40000323B14600900C26029311E70023009373
:101B500001330426002702930AE70323C3461E43EA
:101B6000032125E701331E430022012120E7002342
:101B70009A46802300271B03094A61E780234946D0
:101B80001B03194200D1E2E05946194200D0DEE0C1
:101B90000B431B0317001B0BA246014A50E7C0462C
:101BA000FF07000001FCFFFF18630110FF030000A6
:101BB000FFFFFFFEFE070000FFFF0F800DFCFFFF91
:101BC00001F8FFFFF3030000D94500D9CBE000D1B5
:101BD000C6E03C0048460027009B013B00935B4663
:101BE000160E1B021E431302984633041B0C994623
:101BF000310C0191FEF7C8FC4A4642430B04210C0C
:101C0000050019438A4207D98919013D8E4203D83C
:101C10008A4201D9851E8919881A0199FEF7B4FCF8
:101C200009048C464A46210464464243090C0300D9
:101C300021438A4204D98919013B8E4200D8F1E040
:101C40002D041D43AB464346891A4246280C120414
:101C50001D0C5B46140C22001B041B0C5A430394FE
:101C60006B434443029568431B19150CEB189C42C7
:101C700003D980246402A44660441C0C15041B0490
:101C80002D0C20185D19814277D373D00C1AA24A0B
:101C90007D1BAF42BF419446009B7F426344E01BE3
:101CA0001C00864200D1DBE00199FEF76DFC4A463C
:101CB00042430B04290C070019438A4207D98919AA
:101CC000013F8E4203D88A4201D9871E8919881A9A
:101CD0000199FEF759FC09044A46894629044D46F4
:101CE0004243090C030029438A4207D98919013B61
:101CF0008E4203D88A4201D9831E89193F04891A6A
:101D00003A00039F1A43380013041B0C58438146C2
:101D10000298150C6F43434345434846000C8446E4
:101D2000DB1963449F4203D9802040028446654406
:101D300048461F0C00041B04000C7D191818A9420A
:101D400000D284E000D17FE001231A4357E68023CC
:101D50004A461B0313431B031B0BAA466F4A6FE63D
:101D6000BA4200D935E74B46DC0758087B081C43CC
:101D7000FF0734E70024AF4289D247444745A441D6
:101D80005B466442A4196418013BA6421ED2A042DD
:101D90006DD800D1B6E0241A9B4678E703005A4676
:101DA000283B9A400027914688E65846FEF76CFD8E
:101DB000203072E603005246283B9A4093460022A8
:101DC000B4E65046FEF760FD20309AE6A642E2D126
:101DD000B845DCD9341A9B4659E71F2B65DC504CBB
:101DE0000099A4465C46614408008C401100824082
:101DF000D940501E82410C4314435A46DA40130026
:101E0000620709D00F222240042A05D02200141DA7
:101E10009442894149425B181A0262D5012200238B
:101E200000270DE68A4200D80AE7831E891907E7D2
:101E30000F231340042B00D1E6E5171D9742924172
:101E400053429B44FA08E0E5002800D1D7E5711819
:101E5000531EB14227D3A94215D358D01A0073E7B5
:101E6000002B00DC04E6012300229B44CDE5022385
:101E70004744474589415B429C46494289190C19B0
:101E8000E344241A03E743465F0047459B41B846B5
:101E90005B429E19023A8919A94200D054E7404595
:101EA00000D051E7ABE51A00F6E71F215F46494233
:101EB0000C1BE740202B07D01A49009B8C4663443B
:101EC00018005B4683401A43501E82413A4307275D
:101ED0000023174009D00F210023114014000429CA
:101EE00095D122005F075B021B0BD208174300222B
:101EF000A6E5802359461B030B431B0317001B0B4E
:101F0000064A9DE5BD42B2D89B460024BFE6804507
:101F1000B9D31A00C3E7C046FF030000FF07000063
:101F20001E0400003E040000F0B54F464646D6466B
:101F30008446C0B58046194E18030F034D00000BB0
:101F40005C0082463F0B6D0DC90F9146640DDB0F9F
:101F50000120B5420AD0B44203D0A54201D1574571
:101F60000CD01CBC90469946A246F0BD66463E4346
:101F7000F7D1AC42F5D154461443F2D10120C84503
:101F8000EFD1994207D0002DEBD163461F433800B3
:101F9000471EB841E5E70020E3E7C046FF07000021
:101FA000F0B54F464646D6464D00C0B50E03C90FA4
:101FB0008A462C491F035C008046360B6D0D914606
:101FC0003F0B640DDB0F8D421ED08C4216D0002DCE
:101FD0001ED130438446002C01D13A4323D06246BF
:101FE000002A1AD09A4529D05146022001390840CA
:101FF00001381CBC90469946A246F0BD39001143F9
:10200000E5D002204042F4E73043FAD1AC420FD091
:10201000002C0FD13A43E7D00CE00122013B93435F
:1020200018000130E5E763460020002BE1D0DBE734
:102030003A43E6D19A45D7D1A542D5DCA54205DB86
:10204000BE42D1D808D00020BE42D2D25046012391
:10205000013898430130CCE7C845C5D80020C845B1
:10206000F4D3C6E7FF070000F0B54F464646D64614
:102070004D00C0B50E03C90F8A462E491F035C00F0
:102080008046360B6D0D91463F0B640DDB0F8D4284
:1020900018D08C4211D0002D18D130438446002C2A
:1020A0001ED13A431CD163460020002B30D051464C
:1020B00002200139084001382AE039001143EAD0F2
:1020C000022025E03043FBD1AC4226D0002C26D1A3
:1020D0003A4324D15146022001390840013817E023
:1020E0006246002A0FD09A45E1D1A54205DBBE42E7
:1020F000DDD819D00020BE420AD250460123013853
:102100009843013004E00122013B93431800013061
:102110001CBC90469946A246F0BD3A43D0D19A45A0
:10212000C5D1A542C3DCE0E7C845C0D80020C845FA
:10213000E3D3EDE7FF070000F0B55746DE464E4615
:102140004546E0B5834606000F03480087B0924637
:102150001D003F0B400DCC0F002800D16FE0DE4B7F
:10216000984238D08023FF001B041F43730F3B436A
:102170000193DA4B0027994600239B46F6008144E1
:102180002B0369001B0B52469846490DED0F0029A1
:1021900000D185E0D04B994200D173E04346DA008C
:1021A00080231B0413435246CC48520F84461343EA
:1021B000524600206144D2008944210069400091C8
:1021C0008C46012149448A460F2F00D990E0C4492A
:1021D000BF00CF59BF465B463B43019300D06AE145
:1021E00002230827002681469B46C9E7320058464D
:1021F000019B61460091022800D175E0032800D1BF
:10220000FEE1012800D02CE1002300270026002554
:102210003F032A0D3F0BB34812053A4302401B050A
:102220001343009A5B00D1075B080B433000190091
:1022300007B03CBC90469946A246AB46F0BD5B4613
:102240003B43019300D12FE1002F00D1A5E13800DD
:10225000FEF71AFB03000B3B1C2B00DD96E11D2251
:10226000D31A5A460100DA405E4608398F401300FF
:102270008E403B4301939C4B00271B1A9946002339
:102280009B467DE7414653460B4393498C46E144C8
:10229000002B00D01AE102220220174300228CE713
:1022A000134300D10DE14346002B00D181E14046AC
:1022B000FEF7EAFA02000B3A1C2A00DD72E1010087
:1022C000434608398B4098461D239A1A5346D340FB
:1022D0001A004346134352468A404946081A824927
:1022E00089468144002068E77B4B002700268EE763
:1022F000140C1204120C1100370C3604350C7943FF
:1023000028008C462E0060436044834656432100DB
:10231000300C80465846794340440291844506D9A2
:102320008846802149028C46E044414602913604A9
:10233000010C360C00048B4681191E0C1B041B0C6F
:102340000391190079438C46280075436544A846DB
:102350005843050C45447743A94203D980214902DB
:102360008C466744290C8C4639000004000C2D046F
:102370002D186144AB4405915946049101990F040D
:102380003F0C080C390051434243904602008C46F2
:10239000090C8B4662437C4344445C44A04503D90A
:1023A0008021490288464244210C8846614609043E
:1023B000090C8C4639005943434370437E430F0C4C
:1023C000F6182404BE19644442448C46B34203D92F
:1023D00080235B0298464044029B61469846049BDA
:1023E000370443449B46AB45AD416B420D04059910
:1023F0002D0C8C467F196744FD18A8465D462D19A3
:10240000A542A44193466442A446C344DC448F429F
:10241000BF4198459B4193459241A445A4415B42ED
:102420007F421F43360C52426442BF192243BF18F9
:10243000624638184302D20D039913436A020A43D5
:10244000501E82416146ED0D2A434E023243D901AE
:1024500000D4B3E00126500832400243DE07324385
:102460005B08224C5444002C62DD510709D00F2038
:102470001040042805D0101D9042924152429B18F2
:102480000200D90104D580241948E40003405444D3
:102490001848844200DD27E75E075B02D2081F0B65
:1024A000630516435B0DB2E600239946013304270A
:1024B00000269B4664E60323019781460C279B4632
:1024C0005EE6012201201743002276E60323032063
:1024D0001F43434671E6C046FF07000001FCFFFFB3
:1024E00058630110FFFF0F800DFCFFFFFF0300008A
:1024F000FFFFFFFEFE0700000023802700933F033D
:102500000026434B83E6019B3200A446584670E602
:10251000AC466EE6802701993F0339422DD03B42FD
:102520002BD11F433F033F0B00951600384B6EE63F
:1025300001252D1B382D00DD66E61F2D40DC3548BA
:102540001C005044160082408440EE40501E8241E0
:1025500034431443EB40620709D00F222240042A7F
:1025600005D02200141D9442804140421B181A02DB
:102570003ED501230027002649E68027019B3F0323
:102580001F433F033F0B0094214B40E603005A4694
:10259000283B9A40002601926DE65846FEF774F9F2
:1025A000203057E603005246283B9A401300002291
:1025B00093E65046FEF768F920307BE6CA4650E7BE
:1025C0001F201E004042041BE640202D03D0124C69
:1025D0005444A3401A43501E824132430726002729
:1025E000164009D00F200023104014000428B9D150
:1025F00022005E075B021F0BD2081643002306E68B
:1026000080273F031F433F033F0B1600004BFEE5AF
:10261000FF0700001E0400003E040000F8B5574606
:102620004E464546DE460C000903E0B5490A460F12
:102630005F0031431E03DB0F760A9B46530F334383
:10264000C84E6500C000E40FD2006D0DA246814661
:102650007F0D9C469046B74200D1B9E05B4601260B
:1026600073409B46EE1BA34500D183E0002E63DD43
:10267000002F00D0B1E06346134300D123E1731E65
:10268000002B00D0BAE1861A6346B0428041012592
:10269000C91A4042091A0B0200D447E149024B0A09
:1026A00098464346002B00D189E14046FEF7ECF8FE
:1026B0000300083B1F2B00DD7CE120223000D21AF2
:1026C0004146D040994002009E400A439D4200DDB1
:1026D0006AE15D1B6B1C1F2B00DD94E120211000C3
:1026E0003500C91A8E40DA408840DD40711E8E41A7
:1026F000110007222843002506433240002A09D052
:102700000F233340042B05D0331DB342B64176422C
:1027100089191E000B0200D43DE26A1C914B55053D
:102720006D0D9A4200D119E18F4AF6080A40570709
:1027300052023743120B9BE0002E00D0C5E06E1C06
:102740007605760D012E00DC48E16746861ACB1B24
:10275000B042BF417F42B8461F004346FF1A3B00CC
:10276000B8461B0200D55FE137439AD1002200240E
:10277000002579E0002E00DCFAE0002F00D18DE08A
:10278000784B9D4267D0802367461B041F43BC469D
:10279000382E00DC52E1634613435A1E93411E1843
:1027A00086428041404209180B0200D4BEE06D4BC6
:1027B00001359D4200D1D2E06B4A73080A400121E5
:1027C0000E401E435108D30707221E43324095E7AF
:1027D0001E00164300D045E740E7624B9D423AD0C9
:1027E000802367461B041F43BC46382E00DDEBE008
:1027F0001F2E00DC3AE133006746203BDF403B0000
:10280000202E05D04027BF1B6646BE40324390466F
:102810004646721E96413343DAE0002B00D114E2A3
:102820006346134300D168E180234E07C008C908FE
:102830001B030643194208D06046C008184204D161
:1028400063460100D2085E071643F3009946C900AB
:10285000720F444D11434B46DE08424B4F0737433E
:10286000CA089D4200D16EE012036D05120B6D0D7A
:1028700000211203130B0A0D12051A433B4B2D05C1
:1028800013402B435B00E4075B0823433800190027
:102890003CBC90469946A246AB46F8BD63461343FE
:1028A00011D0731E002B00D007E1861886428041AC
:1028B00061444042091801250B0237D502257BE708
:1028C0003E00614691463500C5E75C46002D00D0CC
:1028D000E1E00B000343F3D0731C00D1ACE1214BCA
:1028E0009F4200D13AE1F343382B00DD6FE11F2B0B
:1028F00000DD8CE120250E00ED1AAE40B04606004A
:10290000AA46DE40454635432E005546D940A840EC
:102910006346451EA8415B1A9C463043161AB242D4
:10292000924163465242991A3D00B4E60722324072
:10293000002A00D0E4E60B4BF6084F073743CA08DD
:102940009D4200D090E73B00134300D1A6E18023D5
:102950001B031A431203120B024D89E715000022D4
:10296000002785E7FF070000FFFF7FFFFFFF0F80C5
:10297000002E00D0C7E06B1C5E05760D012E00DC3A
:10298000F0E0C84DAB4200D1B9E085180A0085429D
:1029900089416244494251180722CE076D082E43EF
:1029A000490832401D00A9E6BF49ED1A114007222F
:1029B0003240A3E6320028388240002686E6300006
:1029C000FDF762FF203073E6634613435A1E9341BE
:1029D000C61AB04280414042091A5CE60E006746C2
:1029E00006431743002D5ED1002E00D0F3E0002FE8
:1029F00000D11EE15C46614691462CE7A94FBE42DC
:102A00007BD01E00F1E610001F3DE840202B03D0D4
:102A10004021CB1A9A401643731E9E41072206435B
:102A200032400021002583E7161A6346B2428041F6
:102A3000591A40420B1A98465C4632E61F2E00DDBA
:102A4000ABE02027BB1B9A4663465746BB409946DE
:102A500013004F46F3401F433B005746BA40571EF2
:102A6000BA4113436246F240891898E62027BB1BFF
:102A70009A4663465746BB40994613004F46F3407B
:102A80001F433B005746BA40571EBA4113436246A4
:102A9000F240891A9CE7834B9F425FD080252D042A
:102AA0007342294320E7002E0CD1002F00D1D0E043
:102AB0005C46614691467B4DCDE67A4FBE421CD0C6
:102AC0001E0065E6002F18D0C0084E070643802080
:102AD000C9080003014208D06346DC08044204D15F
:102AE0002100DA46D2085E071643F3009946012416
:102AF0005346C900720F11431C406A4DABE61D00DE
:102B000000220027B4E6002D59D10B00034300D169
:102B1000D6E6731C00D1B2E0624B9F421ED0F34355
:102B2000382B6FDC1F2B00DD97E020250E00ED1AFF
:102B3000AE40B0460600AA46DE40454635432E006C
:102B40005546A840D940451EA8418C440643B618B6
:102B500096429241514261443D0025E63D00614666
:102B6000914678E60B000343002D00D055E6002B7C
:102B7000F5D06346134300D16DE686188642804146
:102B800061444042091800220B0200D4D0E6464BB3
:102B900001351940B2E5B1465DE633006746203B9A
:102BA000DF403B00202E05D04027BF1B6646BE40BD
:102BB000324390464646721E96413343EFE5394B09
:102BC0009F42CBD080252D0473422943A8E70843B8
:102BD000411E8841A2E6002F00D13CE66346861ADA
:102BE000CF1AB0429B415B42FB1A98461B024ED55E
:102BF000161A6346B2429241591A5242891A5C46E9
:102C000000227BE501430E00711E8E419FE71D00EF
:102C10000E00203DEE40B046202B04D04025EB1A9C
:102C200099400843814648464346411E884118431F
:102C300074E60022002417E6161A6346B242924157
:102C4000591A5242891A3D0025E561469146154DB3
:102C500001E680220024120379E61D000E00203DCB
:102C6000EE40B046202B04D04025EB1A9940084393
:102C700081464E464346711E8E411E4367E78618C5
:102C800096429B4161445B42C9183D008CE5474632
:102C90003743CED007224146324049E600273A006A
:102CA000E6E5C046FF070000FFFF7FFF70B50C4E52
:102CB0000D031C0349005B002D0B490D240B5B0D1C
:102CC000B14208D0064900208B4203D114432000B2
:102CD000441EA04170BD05430120002DFAD1F1E74B
:102CE000FF07000030B5144D0A034B00120B5B0DBB
:102CF000C90F0024AB4211DD104CA34210DC80242C
:102D0000640322430E4CE41A1F2C0CDD0D48C31A39
:102D1000DA4013005C42002900D11C00200030BDC5
:102D2000094BCC18FAE7094DE040AC4663449A40A1
:102D300013000343EEE7C046FE0300001D0400003D
:102D40003304000013040000FFFFFF7FEDFBFFFFD3
:102D500070B500282DD0C317C5185D40C40F2800DA
:102D6000FDF792FD154B1B1A5B055B0D0A2815DD5F
:102D70000B38854000222D032D0B002110002D0360
:102D80000A0D2D0B12052A430D4D1B052A40134336
:102D90005B00E4075B082343190070BD02002900B3
:102DA000153291400A000B21081AC5402D032D0B46
:102DB000E3E70024002300250022DEE71E040000D4
:102DC000FFFF0F8010B5041E25D0FDF75DFD144BED
:102DD0001B1A5B055B0D0A2812DD0B3884400022AC
:102DE0002403240B0021100024030A0D240B1205D8
:102DF00022430C4C1B05224013435B00590810BDB5
:102E000002002100153291400A000B21081AC4402B
:102E10002403240BE6E7002300240022E2E7C04657
:102E20001E040000FFFF0F804100090E4B1C70B50F
:102E3000DBB24602750AC40F012B14DDE0239B00B0
:102E40006D07360BCB1800210A0D280012051C4D0A
:102E500032435B052A405B0813435B00E4075B08D1
:102E60002343190070BD002914D1002D1ED0280065
:102E7000FDF70AFD0A281CDC0B232A001B1ADA4086
:102E8000030015339D400F4B12031B1A5B05160BF5
:102E90005B0DD8E7002D06D0320B802636036D0778
:102EA0001643094BCFE7084B0026CCE7002300264A
:102EB000C9E703002A000B3B9A400025E3E7C04620
:102EC000FFFF0F8089030000FF070000F0B54C00F2
:102ED000640D0B03621C5B0A460F5205C90F1E43AB
:102EE000C500520D012A29DD374BE718FE2F1CDCE7
:102EF000002F3BDD8001431E98410722F3006D0F38
:102F000003432B431A40002A04D00F221A40042AFC
:102F100000D004338022D2041A4024D00137FAB200
:102F2000FF2F02D09B01580A01E0FF22002040023F
:102F3000D205400AC90710430843F0BD3543002CB1
:102F400004D1002D0AD100220020F0E7002DECD0A2
:102F50008020C0033043FF22E9E7002400235B0206
:102F6000580AE2B2E3E7DB083C00F8E73B0017331E
:102F7000F3DB80231B0433431E26F61B1F2E14DDB8
:102F800002225242D71B1A00FA401700202E04D00A
:102F90000E4A94466444A3401D432B005D1EAB4182
:102FA00007223B431A400027ADE7094A2800A21830
:102FB000954093406C1EA541F04007222B430343EC
:102FC0001A4000279FE7C04680FCFFFFA2FCFFFFDE
:102FD00082FCFFFF10B5002903D1FDF755FC20301E
:102FE00002E0081CFDF750FC10BDC046F0B54E468F
:102FF0005746DE464546E0B50F00002183B0060087
:103000008946002F06DA3900002746428F41012108
:1030100049428946002B07DA4946C94310008946D0
:103020001900002342428B4134003D0092469846ED
:10303000BB4269D866D041465046FFF7CBFF834676
:1030400039003000FFF7C6FF5B461B1A9C46203B49
:103050009B4600D575E05146584681400B005146CD
:10306000604681400A00BB4261D85ED034003D001A
:103070005946A41A9D41002900DA7AE00021002077
:1030800001260090019159468E4001966146012625
:103090008E4061460096002950D0D90756085F0837
:1030A0000E4363460EE0AF4201D1A6420CD8A41BEA
:1030B000BD41012124196D410022013B6418554195
:1030C000002B06D0AF42EED9013B24196D41002BF5
:1030D000F8D1009801995B4600196941002B3DDB4E
:1030E0002E00DE4063462C00DC405B46002B4BDBB1
:1030F00034005D46AC4023006446A6403200801A8E
:10310000994103E0B24296D9002000214B46002BA2
:1031100004D003000C0000215842A14103B03CBC84
:1031200090469946A246AB46F0BDB1429ED90021D9
:1031300000200090019161460029AED100980199CC
:10314000E4E72023624651469B1AD940404600914D
:1031500061468840030000990B4380E762462023C4
:103160009B1A2A009A40260013006246D6401E434E
:10317000B8E7614620260127761A00200021F74093
:1031800000900191019781E7674620236246350050
:10319000BC409B1ADD4023002B43ADE7024670B5CF
:1031A0000A4392072AD11E4DEE0104C808C9541BD8
:1031B0009443344017D0D0B2D9B2401A210601430B
:1031C00010D190B299B2401A210401430AD11002E1
:1031D0001902000A090A401A2102014302D1100E05
:1031E000190E401A70BD9A42DFD010BA19BA88423F
:1031F00001D9012070BD0020C04370BD02780B785A
:1032000001300131002A09D09A4207D102780B78A7
:1032100001300131002A01D09A42EFD0D01A70BD9E
:0432200001010101A6
:023224007047F1
:0A32260010B50C220DF077FD10BD6D
:0E32300010B50400006804F003FF200010BD7C
:06323E000023C36070478D
:043244000C30704793
:0C32480010B5FFF7FBFF0023036010BD72
:0E325400C36810B5002B01D09B68984710BDD1
:10326400002273B51B4D130001A92868019204F0D4
:10327400A9FE831C2CD000282AD1019C03F056FF00
:10328400154B164E1B7820602371154B30781B6844
:10329400A360002802D0134800F000FBE060002087
:1032A4003378834202D0104800F0F8FA0F4B2061C3
:1032B4001868002369461A00009404F043FE0028AD
:1032C40006D0002328681A0001A9019404F03AFEEC
:1032D40073BDC04690280020173900201A390020F9
:1032E4004C0200200E39002011390020801F0020DC
:1032F400F7B5174F0C003B780192002B27D1154BE3
:10330400154E18600100300000F00CFB134D210035
:10331400280000F007FB124C0199200000F002FB8A
:10332400FA22104B52000521300000F07FFAFA22F5
:103334000C4B52000421280000F078FAFA22094BC1
:1033440052000321200000F071FA01233B70F7BD05
:103354001A3900204C0200201D3900200E390020AB
:0833640011390020C40900002A
:10336C00F7B5194C05002368013300D120602068A3
:10337C00A84204D1FA20800003F0E4FEF7BD281A1D
:10338C00FDF764FF1149FDF737FC01260190300071
:10339C00FDF75CFF0199FDF707FEFDF737FF23688A
:1033AC000B4FC118380000F0B9FA0136FFF754FF83
:1033BC00142003F0C7FE332EE9D12900380000F0A9
:1033CC00ADFA2560DAE7C0464C0200200000484206
:0433DC001D39002077
:1033E00010B5102003F03AFF002818D12B4C237899
:1033F000012B14D0F5302A4A2A49FF30FFF77AFF13
:103400002849294800F090FA2549284800F08CFA0C
:10341000FA204000FFF7AAFF012323700DE00F20E0
:1034200003F01CFF002803D11C4C2378022B0AD187
:103430000E2003F013FF002817D0FFF713FF14200E
:1034400003F086FE10BD1A4A1A491B48FFF752FFC7
:103450001948FFF78BFF1749134800F065FA144924
:10346000124800F061FA0223D7E70C4C2378032BB3
:10347000E3D0AF200A4A0B498000FFF73BFF094920
:10348000094800F051FA0649084800F04DFAAF200B
:103490008000FFF76BFF0323BFE7C046173900200A
:1034A0001A040000650400000E39002011390020C4
:0C34B000DC05000027060000C409000035
:0E34BC0010B504000021FFF7BCFE200010BD7B
:0C34CA0010B50400FFF7C1FE200010BD8B
:1034D80010B5040086B00822002168460DF0ACFC47
:1034E800231D0493C0235B00059323008533FF331A
:1034F800029334236A4604211820039304F00AFD3A
:103508002060002804D151220349044809F08AF9AF
:10351800200006B010BDC0465A6401106264011054
:1035280010B5044B0822C3600B68002108C00DF0D9
:0835380083FC10BD9863011033
:1035400013B504000191002903D1FFF77DFE20008F
:0A35500016BD01A9FFF7E8FFF9E737
:08355A0010B50368984710BD8D
:0835620010B5FFF7F9FF10BDE1
:10356C0073B51C4800F056F91B4800F053F91B4882
:10357C0000F050F91A4C2000FFF7A8FF194D1A4E15
:10358C002A003100200009F077FC184C2000FFF7CE
:10359C009DFF2A003100200009F06EFC144C154BE5
:1035AC0015482360FFF784FF002114480AF0DEF869
:1035BC0013480AF077F80023802200932000520170
:1035CC0018210AF04DF92A000E49200009F054FC8C
:1035DC0073BDC0461D3900200E3900201139002062
:1035EC00801F00204802002031320010902800205B
:1035FC00382100202C7D01103C2100207821002056
:08360C008C210020C5D800103C
:103614001FB5E1210F48490202F026F902210E20CC
:1036240003F0B6FD02210F2003F0B2FD02211020A9
:1036340003F0AEFD0022084B084968461A70FFF7F4
:103644007DFF694606480AF067F96846FFF73BFFC5
:1036540005B000BD401C0020173900206936001059
:0436640038210020E9
:10366800F0B50125002414269BB06D423300634356
:10367800574A584F9B18039300222B0003A9386818
:10368800013404F05DFC182CF0D101210A2003F06C
:103698007DFD01210A2003F0B7FD4F4801F076FDBA
:1036A800642003F051FD4D4E0A21300000F008FB64
:1036B80008AC0500200000F031FA002D2DD00025BF
:1036C80010212B00464A04A80DF05CFE04A9300026
:1036D80000F0D4FB002875D111AD172304AA3100DE
:1036E800280000F083FB129B6360AB68A360EB6863
:1036F800E3601023EA5CE25401331D2BFAD12B6AF4
:103708002362200000F03AFA051E06D03549200051
:1037180003F06CFC200000F0ADF9002301930022B7
:103728003148642304A90068049204F049FC831C0E
:10373800F5D00028F3D1049C002D3AD008A800F059
:103748001DFA002835D00A22216808A803F0A9FC30
:10375800264E08A8310003F038FC0A22217908A86F
:1037680003F0ABFC310008A803F02FFC0A22A16883
:1037780008A803F088FC310008A803F026FC0A22F8
:10378800E16808A803F07FFC310008A803F01DFCDD
:1037980021690A2208A803F07AFC019B0A21013357
:1037A80018000193FCF7ECFE002902D108A800F0EC
:1037B80061F9012300225B4211A93868119404F0D1
:1037C800BFFBACE70135642D00D079E799E7C04627
:1037D800A01D002090280020B0150020B02A00204D
:1037E800A4630110B2630110801F0020E26301107E
:1037F80010B5046820000AF0C9FB4142414120008D
:063808000AF0B8FB10BD40
:10380E00CB6810B5C360002B01D05B68984710BD24
:10382000024A1378591C1170037070478A380020BF
:10383000F7B5CCB20600012120000092019303F0FD
:10384000A9FC200003F05EFC0700902009F03CFD7D
:103850000400083006F03EFB2000483006F0F0FA85
:1038600023000122883352421A60042009F02CFD03
:103870000023390003808370050008F0EEF93078EA
:10388000064B8200D4502023009A25609B1A737047
:103890006023019A9B1AB370FEBDC04684220020AB
:1038A0000378044A9B009B58181E01D0883318687F
:0838B0007047C046842200208D
:0C38B80010B50400FFF7A7FF200010BDB2
:1038C40010B542680368086854100019D20701D57E
:0838D4000268D358984710BDAB
:0C38DC0010B501000430FFF7EFFF10BD35
:1038E80010B5024BC3601CC91CC010BD7464011024
:1038F80010B586B00400684603910092436004AB9B
:1039080006C806C3200003A9FFF7EAFF200006B097
:0239180010BDE0
:0C391A0013B50400FFF7EBFF200016BD02
:10392800F0B503781D4E9B009C598BB00500002C08
:1039380031D001278823C7579B00DF1B8F4207DC44
:1039480002279623C7571B01DF1B8F4200DD0F009C
:10395800230088331A680F3F013217D1104A1F60BD
:103968002100002306A8FFF7D4FF06A902A8FFF745
:103978009FFF20000B4A4830002302A906F06CFA8A
:1039880002A8FFF79EFD06A8FFF79BFD2B789B007A
:10399800F35888331F600BB0F0BDC0468422002066
:0839A800B1390010204E0000AF
:1039B00070B504008AB0174A0100002302A8FFF77F
:1039C000ACFF230088331868FFF7C2F90022124BBE
:1039D000FDF7A8FFFFF77AFA02A9061C06A8FFF771
:1039E0006BFF0E49301CFDF7E5FA2500FCF7F6FFEA
:1039F000083502000B00280006A906F031FA06A8D7
:103A0000FFF763FD02A8FFF760FD2000FFF7F4FE5B
:103A10000AB070BDF937001080842E41002474492B
:083A200010B5FFF75BFF10BDBC
:083A280010B5FFF7F9FF10BD16
:103A300013B56B460268D971073354681900012227
:043A4000A04716BDC8
:103A440010B5036A181E02D01A689268904710BD18
:103A540010B5036A0400002B03D101230020636026
:103A640010BD0020586092B2206A00F0F5FF236A6E
:083A74005B68002BF1D1F3E7C0
:103A7C0010B5006A002802D0012100F021FE10BD13
:103A8C0013B56B46DC1D0122210000F047FD012817
:0C3A9C0001D1207816BD01204042FBE75C
:103AA80010B5006A002802D0FFF7ECFF10BD012016
:043AB8004042FBE7A6
:103ABC0070B500240500006AA04209D0FFF7E0FFB2
:103ACC000400431C04D0286A0369591E00F0C8FD89
:043ADC00200070BD99
:103AE000F8B5FA2300259B0083600D4B04000833D2
:103AF0004560036028200F0016000CF0D5FD206201
:103B0000A8420AD0282239000DF008F920000C2222
:103B1000310010300DF066FD25772000F8BDC0465D
:043B200080640110AC
:103B2400FA22002392008260034A43600832026052
:0C3B3400036203747047C04680640110F7
:103B4000036A002B01D01869704701204042FBE74F
:0A3B5000036A181E00D0D869704700
:103B5C0070B50500006A00280BD02800FFF7F2FFB3
:103B6C0004002800FFF7E6FF024B201A984200D908
:083B7C00180070BDFF7F00007E
:103B8400036A181E03D0587A431E9841C0B2704786
:103B940010B50A000B498AB00023009169460193CD
:103BA4004B7201330100684600F0B8FE0400631E46
:103BB4009C41E4B2002802D0684600F0CBFD20000E
:083BC4000AB010BDC06401103D
:103BCC0070B5012204000D0001F0D2F902000120B1
:0E3BDC00002A03D12900200001F0CAF970BDB3
:103BEA00F0B50B68C45C2F3C65426C411B191F0081
:103BFA001E000C37C55C9C1B2F2D08D0002D06D04B
:103C0A0001339C1B013C1555BB42F3D10C24002502
:103C1A001555C25C2F3A544262419B180B60C05C36
:083C2A00431E9841C0B2F0BD39
:103C3400F0B50D009FB0039300232C0001902048A1
:103C44000AAF14A902927B600A907B7215931490B8
:103C54004B72059306AA05A90198FFF7C4FF012238
:103C640042400090029ED2B2039B06A92000B047B6
:103C7400061E05D1AC4217D1002630001FB0F0BD9E
:103C8400009B002B0ED0012306AA2100380000F06F
:103C940045FE0600AC420BD0200000F05BFD002E78
:103CA40009D1E9E7AC42E8D0200000F053FDE4E795
:103CB4000028E1D014AC23003C001F00CAE7C04632
:043CC400C0640110C7
:103CC800030070B541331B7804000D00002B02D0AF
:103CD800383000F03DFD2A000121200000F0C2FA32
:103CE800002801D1002070BD2500103521002800D2
:103CF800FFF768FF0028F5D020002900383000F0D1
:0A3D0800E5FB431E9841C0B2EDE751
:103D14004B6843600A4B03600B7A03724B7A43721D
:103D2400CB68C3600B6903614B6943610B7E037607
:103D3400CB69C3610B6A03624B6A43627047C04636
:043D4400C064011046
:103D4800F0B59DB00393002308AD029212AE264A47
:103D580007006B6073601031280008926B72129232
:103D6800737200F0B3FB029C2F2120000DF09AFB28
:103D7800002830D023782F2B01D10134F4E7001B21
:103D8800C0B2031C0C2800D90C23DBB21A00210096
:103D980004A801930DF022FC0023019904AA300025
:103DA800535400F0D5FC012304AA2900300000F088
:103DB800B3FD002806D10C4B78603B607872380060
:103DC8001DB0F0BD019B2800E41800F0C1FC2B00D9
:103DD80035001E00C8E7029B2900E41A039B38003F
:0C3DE8001C60FFF793FFEAE7C0640110C5
:103DF400F0B5A3B001930023140004AE03930700AD
:103E040003AB3000FFF79EFF039BE4182378002BDD
:103E140009D1310018A8FFF77BFF174A18A9380009
:103E2400FFF75CFE0BE00022144B0EAD0E93737A89
:103E34006A606A72934205D13800FFF771FE380058
:103E440023B0F0BD019B22003100280000F066FD84
:103E54000028F1D0300000F07DFC0623019A1A40BE
:103E6400062A03D11599280000F0FEFB290018A8A2
:103E7400FFF74EFF2200D1E7A4640110C0640110D3
:103E840010B50C00010000233831024A2000FFF76E
:083E9400CFFE10BD953B0010AC
:103E9C000221084B00221961190030310A700649C1
:103EAC005A719A719A721A73DA63996341331A7060
:0C3EBC007047C046B02A0020C06401100E
:103EC80000B5062904D9162300214371080000BD56
:103ED800114B05291BD808000022FCF7C1FA030979
:103EE800101214160D49196001211A71597104E054
:103EF8000B481A711860012058719A71E6E7094950
:103F0800F1E70949EFE70949EDE70949EBE7094A0C
:103F18001A600022E8E7C0468828002040787D0122
:103F280000093D0080841E0040420F0020A10700C8
:083F380090D0030048E80100ED
:103F4000044B054A01211A60002259711A719A71B5
:0C3F50007047C0468828002000093D0092
:103F5C0010B50100014801F095F810BDB015002016
:103F6C0010B5FF21014801F08DF810BDB0150020EF
:103F7C0070B50C0003F0D6F80500FFF7F1FFFF2831
:103F8C0006D003F0CFF8401BA042F6D3002070BD42
:043F9C000120FCE71D
:103FA00010B50121007903F033F9054B1A78002A86
:103FB00004D0002203481A7001F0AFF810BDC046CB
:083FC0000C390020B0150020AF
:103FC80010B583790400002B0DD023895A1C228157
:103FD800054A934202D8FFF7C5FFF6E72000FFF72E
:0C3FE800DBFF0023A37110BD01020000EC
:103FF40070B5040003F09AF8962506006D00FFF7EB
:10400400B3FF0300E072FF280BD103F08FF8801B8D
:10401400A842F4D90F2320006371FFF7BFFF0020EB
:0C40240070BD0120FE2BFBD00D23F4E743
:1040300070B5050008001400FFF790FF80239B0077
:10404000E61820780134FFF789FFB442F9D1FF2048
:10405000FFF784FFFF20FFF781FFFFF787FF1F2394
:10406000E87203400120052B05D0112328006B7155
:08407000FFF796FF002070BD70
:1040780010B5084B04001A78002A06D101321A70CC
:10408800054B064806CB01F046F82079002103F0DD
:10409800BBF810BD0C39002088280020B01500207E
:1040A800F8B505000E001700FFF78AFF2800FFF794
:1040B800DFFF962128004900FFF75CFF40203043CE
:1040C800FFF748FF18243800E040083CC0B2FFF76B
:1040D80041FF23000833F6D19520002E03D06A3023
:1040E800082E00D17838FFF735FF0024FFF73AFF94
:1040F80043B2E872002B04DAFF2C02D00134E4B298
:04410800F4E7F8BD23
:10410C00F8B516001D009A18802304009B009A42F3
:10411C0016DC8379002B05D003688B4202D103890E
:10412C00B3421AD9237B2160032B00D049020A0029
:10413C0020001121FFF7B2FF071E06D00323637185
:10414C002000FFF727FF002028E02000FFF74CFF9E
:10415C000028F5D001232781A3712389B34208D30A
:10416C00069E7719B7420AD0FFF7FAFE3070013677
:10417C00F8E7FFF7F5FE238901332381EDE7238967
:10418C00ED18A37AADB22581002B03D0044B01208E
:10419C009D4203D92000FFF711FF0120F8BDC04656
:0441AC00FF0100000F
:1041B00013B504000120002B04D0049800902000C7
:0641C000FFF7A4FF16BD8D
:1041C600802307B59B0000920022FFF79CFF0EBDDF
:1041D600F8B51D00040016001223002924D0037B25
:1041E600032B00D049020A0020001821FFF759FFCF
:1041F6000423071E18D13200FE212000FFF715FF09
:10420600002812D0002D19D0962120008900FFF732
:10421600B2FE1523002807D03A000D212000FFF733
:1042260040FF002806D0142363712000FFF7B5FE77
:10423600002007E0FFF797FE0028F4D12000FFF7E3
:06424600ACFE0120F8BDF2
:10424C0070B50500FFF712FFFFF78AFE0400280087
:0E425C00FF3CFFF79FFE601E8441E0B270BD84
:10426C00F7B50025027105738572857145710400DF
:10427C00019102F057FF01210700207902F084FF21
:10428C000121207902F0BEFF434E300000F07CFF8C
:10429C000122424B42491D719D715A7119605A6835
:1042AC00300000F036FF0A35013DFF20EDB2FFF77C
:1042BC004FFE002DF8D1300000F029FFFA26200027
:1042CC00FFF7D4FEF600002220001100FFF7E6FEF7
:1042DC000500E07201280BD002F024FFC01BB04295
:1042EC00F1D9012320006371FFF754FE0020FEBDBD
:1042FC00D522082152002000FFF7D0FE04231842DB
:10430C001BD02573257BFA26023D6B425D41F600DE
:10431C00AD07002237212000FFF7C0FE2A0029211B
:10432C002000FFF7BBFE021EE07213D002F0FAFE73
:10433C00C01BB042EDD90823D4E71D00FFF710FED7
:10434C00013DEDB2E072002DF8D10223AA28C9D1AB
:10435C002373D7E7237B022B15D13A212000FFF7DB
:10436C009DFE002801D00623BCE7FFF7F9FDC02312
:10437C001840984201D1BD3B2373FFF7F1FDFFF7C5
:10438C00EFFDFFF7EDFD2000FFF704FE0199200083
:10439C00FFF794FDABE7C046B0150020882800203D
:0443AC0090D00300AA
:0243B000704754
:1043B200020010B50C3204000121406A00F053FDE6
:1043C20000280ED0236A002B06D1E368227A2362EA
:1043D20080235B421343237220230120227A13435A
:0443E200237210BD75
:1043E60070B50600FFF7E2FF002801D1002070BD7E
:1043F600736AF2681C79951E1A7C95405A69AD1845
:104406006419A54206D0013C200000F070FC00288B
:10441600F7D1EBE7736A01201A7C80239B00934057
:08442600F269D318F361E2E72B
:1044300010B50400406900F037FC002803D0207E4E
:0C444000014B4001C01810BD482B0020AB
:10444C000A00F0B50B000E000700202187B00B32DC
:10445C00197001339A42FBD10723002501931EE00A
:10446C001022184902A80CF053FC002302AAD25CBB
:10447C00002A04D001339442F8D1002020E0019BA3
:10448C00AB42FAD32300213B5D2BF6D8403B192BD2
:10449C0001D8203CE4B26B1C7455DDB201373C787A
:1044AC00002C08D02E2CDBD1019B0A2BE5D00A2343
:1044BC0008250193F2E730782038431E9841C0B2AA
:0844CC0007B0F0BDA664011069
:1044D40070B5427A04000D00002A01D0002070BD9E
:1044E4004B1CDB7F102B0ED10E3B43724B8C0262B4
:1044F4005B01C3610023012065622072E3602361D4
:1045040063612376EBE7202BE8D102001D3B437265
:10451400496A1C320162280000F03AFC0028E9D103
:02452400DCE7D2
:10452800F0B5437A85B004000F000392002B03D145
:104538000120404205B0F0BD037ADB07F8D50269D7
:10454800C3699B1A039A9A4201D99BB20393039BAE
:104558000293029B002B5ED02369627ADD05ED0D84
:10456800606A5E0A022A25D1406A80238019029E69
:104578009B005B1B9E4200DD9EB24022237A1342C1
:1045880003D180239B009E4203D1254B1B688342A5
:104598002CD1002100F084FB0028C9D0214B390020
:1045A800ED182A00AB19934232D010780132087006
:1045B8000131F8E70279013A1640F6B2002D05D12B
:1045C800002E03D1002B09D1236AE360636AE268F5
:1045D800901E1A7C5B699040C018C6E72200E1680B
:1045E8000C3200F0A3FB0028F0D1A1E701000E482F
:1045F800009733002A000068FFF7D6FD002897D0FF
:10460800BF1923699B192361029B9E1BB3B29FE7C5
:104618005D1B7F19F5E76B460C20185E8AE7C046DC
:0C46280050020020482B00204C2D0020E8
:1046340037B5437A05000020012B0BD92B690122E1
:10464400DC056B462800D91D240FFFF76BFF0128FA
:1046540001D000203EBD2B6960011F332B61014B4B
:08466400C018F7E7482B002005
:10466C0070B5437A04000E00002B01D1002070BD00
:10467C00C2698A42FAD3022B02D126610120F6E7E5
:10468C00002901D1E160F8E7436A01691A7C751EC3
:10469C0009324B1ED340D540AB4201D800290DD175
:1046AC00236AE360002DE8D02200E1680C32606AD6
:1046BC0000F03AFB013D0028F4D1D7E7ED1AF1E701
:1046CC0070B5437A05000E00002B01D1002070BD9F
:1046DC00037A7F2B2DD90121FFF7A4FE041EF5D000
:1046EC006B7A012B07D8EB691A0A037742771A0CFD
:1046FC001B0E8277C3772B6A9BB2A3761B0AE376D9
:10470C002B6A1B0C23751B0A63750F4B1B68002B44
:10471C000BD021002000163118309847637E227E82
:10472C001B021343A3741B0AE3747F222B7A1340DE
:10473C002B72002E03D110222B7A93432B72300054
:0C474C0000F086FAC3E7C046142B0020E2
:1047580010B501210400FFF7B5FF002802D000239F
:064768000120637210BD88
:10477000F8B5437A0500012B01D00020F8BD037A7B
:104780009A07FAD55B0712D4174B1868FFF75EFD3E
:104790000028F2D12A7A202714003C4010D00100D2
:1047A0002800FFF793FF2B7ABB432B72E5E7C16923
:1047B00003698B42E8D0FFF759FF0028E4D1DCE71A
:1047C0000A4B1B68002B03D0200000F02FFAD4E71F
:1047D000102328691343C0052B72C30D802080006D
:1047E000C01A80B2CAE7C0464C2D0020482D0020D8
:1047F00073B50400407A0D00012801D0002076BD79
:10480000237A9B07FAD5E3698B42F7D3002BF6D0C6
:1048100020002669FFF72AFF0028EFD0606A002DEC
:1048200019D1216A00F082FB0028E7D0256280239D
:10483000227A5B421343E561237201212000FFF7D6
:1048400045FF0028DAD02900B54200D93100200008
:10485000FFF70CFFD3E701AAE16800F06BFA00282C
:10486000CCD0606A0199431CDB7F103B5A1E9341F8
:10487000094A5B421340094A9B189942D7D200F07B
:1048800055FB0028BAD0064AE168606A00F0A8FA31
:104890000028CCD1B2E7C0460000FF0FF8FF0000AF
:0448A000FFFFFF0F08
:1048A4001C4B70B515004A01D31811220400D87AA4
:1048B400104204D03132154201D0002070BD1820BE
:1048C400154A2176126862619A8A12042262598B0F
:1048D40011432162DA7A024010D1DB69E3610123DA
:1048E40063720F2300212B402372E16021610120B8
:1048F4006B06E3D52000FFF779FFDFE7102ADCD150
:104904002200606A1C3200F043FA0028D5D0042348
:0C491400E6E7C046482B002050020020BF
:10492000F0B50500447A002087B00E001F008442D5
:1049300006D103A91000FFF789FD002802D100204D
:1049400007B0F0BD736A6B62F46034613369F26979
:1049500093421DD20F225B091A4030000192FFF7EB
:1049600069FE011EEBD00378002B05D0E52B48D162
:10497000002C03D00124E9E7002C05D16B461B79FC
:104980002B76334B1B686B610B78002BF2D1012423
:1049900012233B40122BD2D1002C43D001212800FE
:1049A000FFF746FD041ECAD02022002120000CF093
:1049B00047FA0B2203A920000CF0B0F9254B1B6825
:1049C000002B3CD0210020000E3110309847637C32
:1049D000227C1B021343FF221A401B0AE3746376F6
:1049E000E37BA2742276A27B1B021343A3751B0AEE
:1049F000E375012000F032F90028A0D0297E3A00AA
:104A00000CE00B2203A80CF063F900289ED13023A0
:104A10003B40302B00D192E73A0001992800FFF784
:104A200041FF8DE7737A022B00D188E73000FFF752
:104A3000DAFC002800D182E72C76074CB4E721226B
:104A4000A3730823227407326274E373BFE7C0467E
:0C4A500050020020142B0020482B0020F6
:104A5C00F0B5437A87B004000F000392012B2ED1DE
:104A6C00037A02939B072AD5029B5B071FD4039BF7
:104A7C000093009A2369002A00D199E0606A5D0ACC
:104A8C000279DB05013A1540DB0DEDB20193002DE7
:104A9C001AD1002B18D1E16800294BD1236A002BC5
:104AAC0011D12000FFF77FFC00280DD107E0C16970
:104ABC0003699942DBD0FFF7D3FD0028D7D101233E
:104ACC000020636089E0E3608023019A9B009B1ABD
:104ADC006A461688009A9BB29A4200D91E1C626ADA
:104AEC00E368117C023B8B405269B6B29B185D198E
:104AFC0080239B009E4232D13D4B1A68AA4202D1C0
:104B0C00012252421A60029B3A481A0901232900D9
:104B1C00934300683A00FFF758FB0028CFD080235E
:104B2C009B00FF18009B9B1B9BB2009323699E1953
:104B3C0026619EE705AA00F0F7F800284DD0636ABD
:104B4C00059A0133DB7F103B591E8B412A495B428E
:104B5C000B402A495B189A42A3D2E260B4E7019B4E
:104B6C00002B1CD12369E269934218D3012000F079
:104B7C006FF80028A3D01E4B214A1D600123117829
:104B8C000B431370019A1F4B3800D31819009A1954
:104B9C008A420BD0057801300D700131F8E7012104
:104BAC00280000F07BF80028ECD188E7D31AB8E78E
:104BBC00E169227A994205D2E36180235B42134377
:104BCC00237206E0104B1B68002B02D0039B002BBA
:104BDC00F3D1237A1B0702D4039807B0F0BD01214F
:104BEC002000FFF76DFD002800D168E7F4E7C04610
:104BFC00500200204C2D00200000FF0FF8FF000099
:0C4C0C000D390020482B0020142B002044
:104C180007B56B46D971073301221900FFF71AFF50
:024C28000EBDBF
:104C2C0010B5084C030021680120002909D0064862
:104C3C00064A0068FFF7C9FA002802D000230120B9
:104C4C00236010BD482D00204C2D0020482B002047
:104C5C0070B50E4D04002B78002B01D101200AE019
:104C6C0003000B490B480C4A09680068FFF7ADFAC2
:104C7C00002801D1002070BD002CEFD02000FFF7E0
:104C8C00CFFF0028F6D000232B70E7E70D3900206A
:0C4C9C00500200204C2D0020482B00206E
:104CA80070B50E4E050033680C0083420FD001200A
:104CB800FFF7D0FF002801D1002070BD084B094A3A
:104CC80029001868FFF77BFA0028F5D03560064BF5
:104CD80001201A7814431C70EFE7C04650020020E8
:0C4CE8004C2D0020482B00200D3900202E
:104CF40070B504000120FFF7AFFF002810D0002397
:104D040080221800074D920059190133087093420C
:104D1400FAD10120044B054A1C6013780343137035
:104D240070BDC046482B0020500200200D390020E1
:104D3400C36870B501330C0015008B4201D200200A
:104D440070BD461CF27FC369C809102A00D1080A45
:104D5400C0180D4B1B68834209D1F27F0B4B102AFC
:104D64000BD1E4B264001B5B2B600120E8E7002157
:104D7400FFF798FF0028F0D1E1E77F221440A40058
:104D84001B591B011B09EFE750020020482B002090
:104D9400F7B580270500160000240191BF0001AA81
:104DA40001992800FFF7C4FF002812D03A002B7C99
:104DB4009A406B1CDB7FA418103B5A425341054AAE
:104DC4005B421340044A9B18019A9A42E7D301209C
:0C4DD4003460FEBD000001F0F8FFFF0F8E
:104DE000F7B506000C000192012901D80020FEBD94
:104DF000C36801338B42F9D3471CFA7FC569CB09DD
:104E0000102A00D10B0AED18134B1B689D4216D1D6
:104E1000FA7F124B102A19D16A46E4B292886400D4
:104E20001A5301230E4918000A781A430A70327E79
:104E30009A42DCD9B26855190A4A1560D7E70021B1
:104E40002800FFF731FF0028E2D1CFE77F2214408E
:104E5000019AA4001A51E4E750020020482B0020D8
:084E60000D390020482D00204F
:104E6800F0B5146887B0060002910192002C2AD090
:104E780000270134F36825000133039300230093CE
:104E8800F368009A93421AD9039B9D4201D90225DF
:104E98002C0005AA29003000FFF748FF00280ED093
:104EA800059A6B1C002A15D102991A1B8A4212D145
:104EB8001B4A29003000FFF78FFF002810D1002778
:104EC800380007B0F0BD029B0468013B5A425341C9
:104ED800DFB2CFE71C00009A1D0001320092CFE735
:104EE800AC4208D26B1E2A00190030000093FFF76D
:104EF80073FF009DE1E7019B1968002905D1019B1B
:104F08001C60002F08D10137DAE722003000FFF7D4
:104F180063FF0028F3D1D2E701343460D0E7C046FC
:044F2800FFFFFF0F79
:104F2C00022337B505000C00036001AA21002800FC
:104F3C00FFF7FAFE002815D0002221002800FFF709
:104F4C0049FF00280ED06B1CDB7F019C103B5A42A2
:104F5C005341054A5B421340044A9B189C42E4D3DC
:104F6C0001203EBD0020FCE7000001F0F8FFFF0F20
:104F7C00F8B53F4B0500141E196020D0042A01D946
:104F8C000020F8BD00210800FFF788FE0028F7D0AC
:104F9C00631E384A1B01D318BF33FF331B785B06E3
:104FAC00EED11B3424011419A38962891B04134309
:104FBC00632BE5D9E388248924041C43E0D0002129
:104FCC002000FFF76BFE0028DAD0802229499200DE
:104FDC000B7BC87A1B0203439342D1D10A7C002A73
:104FEC00CED0CB89002BCBD04B7B002BC8D02A76D4
:104FFC00002201202B712A7402002E7CB2409342B5
:10500C0004D0721C2A74072EF6D9B9E7C88A002876
:10501C0000D1486AA860CB891B19EB610A6912029E
:10502C00120C6A840F7C7843C0185301124A6862D0
:10503C009B185B121B186B610A7DC87C1202024321
:10504C0000D10A6AE41AA418F4400C4AEC606B1CF8
:10505C00944203D80C22DA77012092E7084A944252
:10506C0001D81022F7E7CA6A6A622022F3E7C04629
:10507C004C2D0020482B0020FF010000F40F0000F5
:04508C00F4FF00002D
:105090000B000F2130B50122172487B069440B7033
:1050A000C3686C44186803680092DD682300A84751
:0650B000207807B030BDBE
:1050B600F8B5427A036805000C00CFB29B680E0A69
:1050C600002A0FD13900FF2798472B68BC430443B9
:1050D6009B68310028009847030220003840184397
:1050E60080B2F8BD31009847FF262B680002344095
:1050F60004439B68390028009847B4432043EFE7F0
:1051060013B5C368186803680092DC680B00A047F3
:0251160013BDC7
:025118007047DE
:02511A007047DC
:02511C007047DA
:10511E0030B5436885B004000D00029103929942A8
:10512E0005D113000192826853401B0210D002ABCE
:10513E001A79E3680821186804F0F0FAE368290088
:10514E00186804F007FB201D072202A90BF0DFFDF3
:04515E0005B030BDAB
:10516200C36810B50400002B0BD01868002808D0C3
:1051720003685B6898470421E06808F0D4F80023CC
:04518200E36010BD19
:0E51860010B50400182108F0CCF8200010BD70
:1051940037B5C5680400002D04D1042008F092F846
:1051A400E0600560E3681B68002B11D1302008F033
:1051B40089F81422A35E05001021625E1220215E8C
:1051C400012040420090280004F072FAE3681D6058
:0251D40037BDE5
:1051D800F7B50C2001F092FF07000B2001F08EFFBD
:1051E80006000D2001F08AFF00240122194B1A4DF8
:1051F8001F825E82194F1A4E5C6031001C725A720F
:105208009C723A009882083518001D60DC6007F02F
:1052180035FE192001F072FF00901C2001F06EFF8E
:1052280001901D2001F06AFF01220E4B31005A72D5
:105238006A46128898821A826A4692885C605A8204
:105248001C723A009C7218001D60DC6007F016FEA4
:10525800F7BDC046B0150020D064011048020020F8
:085268001D510010C8150020C3
:1052700070B5124C12492068124A134B884213D160
:105280006068904210D1A06898420DD100250D2091
:10529000256001F037FF04000C4809F0D3FD03003E
:1052A00001202900A0409847216009480021A360FF
:1052B000626009F035FC0023236070BD1C100020E3
:1052C000DE8116F0299B72BD7ABE59D3554200008B
:0452D00020A1070012
:1052D4001B220A4B1A600A4B023A1A60094B01322C
:1052E4001A60094B08321A60084B05321A60084BE1
:1052F400033A1A60074B013A1A607047AC15002054
:10530400A8150020A415002094150020981500204D
:085314009C150020A0150020EB
:10531C000B00F0B50F2700260E33023902003A407D
:10532C00D5B22C0000093034092A00DD07341C707A
:0A533C005E70023B9942F1D1F0BD12
:045346001E2070476E
:02534A007047AA
:10534C0013B50400684608F0F5FF21000098FFF73C
:10535C00DFFF210001981031FFF7DAFF202016BD86
:10536C0010B50D2001F0C8FE0400044809F064FDDE
:10537C00030001200021A0409847C0465542000080
:04538C000020704746
:105390009A2370B55B00C35C05001400002B1CD180
:1053A0000368DB699847F0210C4B09012140C918BB
:1053B0004B1E9941F0232340303B5A4253410F2268
:1053C0000731144001330D3A012C02D0023C6242F5
:1053D0006241A869006804F02BFB70BD00FDFFFF6F
:1053E0009A2310B55B00C35C0400002B05D1A369B0
:0C53F000186804F04DFB0028F9D010BD37
:1053FC009A2370B55B00C55C0400002D14D1836941
:10540C00002B0CD01868002809D00368DB6898477B
:10541C00A36904211D60A06907F080FFA56100232A
:0A542C00FC34E3622363636370BD88
:105436009A23F7B55B00C35C0400002B2AD18025B4
:10544600FF276D00A369186804F003FB002821D02C
:1054560007F097FAA369012218686B46DE1D0368F8
:1054660031005B6998472300FC335A6BAA420ED081
:105476005A6BAA420BD02200D96A3078283250548F
:10548600DA6A01323A40DA625A6B01325A6307F03D
:065496008EFAD7E7F7BD16
:10549C009A2210B552000300805C002806D001202F
:1054AC0001F050FE054801F096FA10BD9B69002BE7
:1054BC00FBD01868431E9841C0B2F6E7E0150020F7
:1054CC0070B504000D0001F086FA03000020834241
:1054DC0004D0236829001B6C2000984770BD08B4C9
:1054EC00024B9C46024BC01A08BC6047CD540010BE
:0454FC00400100006B
:1055000037B56B46DC1D9A2321705B00C35C050038
:10551000002B04D0C9B20A48FFF7D8FF3EBDAB69E3
:10552000186804F0B5FA0028F9D0AB6901221868B0
:10553000210003681B6998470130431E9841EDE73D
:04554000E015002052
:10554400F7B5060001911700002401F048FAA042C3
:105554000DD0A7420BD93D1B402D00D94025019BFE
:105564002A001919300000F07DFF6419F1E72000CA
:10557400FEBD08B4024B9C46024BC01A08BC6047EF
:08558400455500104001000034
:10558C009A2370B55B00C35C05000E001400002B61
:10559C0005D00F48FFF7D0FF0400200070BDAB69A9
:1055AC00186804F06FFA0028F9D0AB6901211B6868
:1055BC0018005B6F74301B6B9847AB69220018683E
:1055CC00310003681B699847431CE6D10024E4E7CB
:0455DC00E0150020B6
:1055E000F0B5C3B0050001F0E7F9932380229B00DA
:1055F000E918CB6852000400D31A984201DDCC6848
:10560000141B01AB220002A92800A82601F029F8EA
:105610000021019802AB241A76001C1993238022E2
:105620009B00EB18DF685200974211D081420FD0E7
:10563000DF6897420AD05A68675CAA1897555A687B
:105640000132D2B25A60DA680132DA600131E5E73C
:0456500043B0F0BDB6
:1056540070B5040000F0E8FB2000FFF7BFFF9323C0
:105664009B00E318DD68200000F0E5FB280070BD16
:1056740008B4034B9C46034BC01A08BC6047C046A1
:08568400555600104001000022
:10568C009A2310B55B00C35C0400002B05D00648C0
:10569C00FFF7DAFF0400200010BDFC3407F06EF9B0
:0C56AC00646B07F081F9F6E7E0150020C0
:1056B80070B5040000F0B6FB2000FFF78DFF9323C0
:1056C8009B00E318DA68002A09D0A8229B685200D8
:1056D800E3189D5C200000F0ACFB280070BD01259C
:1056E8006D42F7E708B4034B9C46034BC01A08BC4D
:0C56F8006047C046B95600104001000099
:105704009A2310B55B00C35C0400002B05D00B4842
:10571400FFF7D0FF0400200010BD07F033F9230089
:10572400FC335A6B002A05D01B6B2834E45C07F069
:105734003FF9F0E701246442F9E7C046E015002090
:1057440070B5040000F070FB2000FFF747FF9323BF
:105754009B00E318DA68002A10D0A8219A6849004F
:10576400A218555C9A680132D2B29A60DA68013A9A
:10577400DA60200000F05FFB280070BD01256D4257
:10578400F7E708B4024B9C46024BC01A08BC6047BA
:08579400455700104001000020
:10579C009A2310B55B00C35C0400002B05D00E48A7
:1057AC00FFF7CAFF0400200010BD07F0E7F8230044
:1057BC00FC335A6B002A0CD01A6B2834A45C1A6B7D
:1057CC000132D2B21A635A6B013A5A6307F0ECF801
:0C57DC00E9E701246442F9E7E015002031
:1057E800802210B50400520000210BF025FB230095
:0E57F8000022FC335A6020009A60DA6010BD77
:1058060010B542680368086854100019D20701D51C
:085816000268D358984710BD49
:0C581E0010B501000430FFF7EFFF10BDD3
:10582C0010B5024BC3601CC91CC010BD0C65011027
:10583C0010B586B00400684603910092436004AB37
:10584C0006C806C3200003A9FFF7EAFF200006B034
:02585C0010BD7D
:0C585E0013B50400FFF7EBFF200016BD9F
:10586C009A2370B55B00C35C86B004000D00002B5E
:10587C0036D18669002E04D1042007F01FFDA061EB
:10588C000660A369186800282CD1783007F016FD43
:10589C0006002223E25E2023E15E2B0004F0B2FC22
:1058AC00A3691E602423E25E531C06D0A069262146
:1058BC00635E0068032104F0B3FCA3691D68002D2E
:1058CC000ED00026094A3300210002A8FFF7C1FFC1
:1058DC002800320002A904F041F902A8FDF7EFFDFF
:1058EC0006B070BD290004F08CF8DBE737540010CB
:0858FC0010B5FFF78EFF10BD8F
:0859040010B5FFF7F9FF10BD1B
:10590C00F0B53A4B3A4DFA2685B000240833009393
:10591C002B602023B6006C60AE6036486B61AC61C6
:10592C00EC61FFF75BFF9A2201205200A85401F0B2
:10593C00E3FB0700200001F0DFFB2F4D20232F8419
:10594C00012700997F426C60AE6068842B48296007
:10595C006B61AC61EC61AF84EF84FFF73FFF9A227F
:10596C0019205200AC5401F0C7FB01901A2001F031
:10597C00C3FB02901C2001F0BFFB03901B2001F025
:10598C00BBFB20231E4D00996B616B4629609988E7
:10599C006C6029841989AE6069849989E8841948F6
:1059AC00A984AC61EC61FFF719FF9A22192052000F
:1059BC00AC5401F0A1FB01901A2001F09DFB2023B7
:1059CC00114D00996B616B469B8868846C60AE606E
:1059DC000E482960AC61EC612B84AF84EF84FFF737
:1059EC00FDFE9A225200AC5405B0F0BD18650110B2
