:020000041000EA
:1000000000B5324B212058609868022188439860DF
:10001000D860186158612E4B002199600221596106
:100020000121F02299502B49196001219960352056
:1000300000F044F80222904214D00621196600F024
:1000400034F8196E01211966002018661A6600F04E
:100050002CF8196E196E196E052000F02FF8012189
:100060000842F9D1002199601B49196000215960AB
:100070001A491B48016001219960EB211966A021F2
:10008000196600F012F800219960164914480160C1
:100090000121996001BC002800D000471248134993
:1000A000086003C880F30888084703B5996A0420EC
:1000B0000142FBD001200142F8D103BD02B5186610
:1000C0001866FFF7F2FF186E186E02BD00000240BE
:1000D000000000180000070000035F00212200005C
:1000E000F4000018222000A00001001008ED00E03C
:1000F00000000000000000000000000074B24E7A12
:1001000000000420E3010010C3010010E903001007
:10011000C1010010C1010010C1010010C101001097
:10012000C1010010C1010010C10100104503001001
:10013000C1010010C1010010C9030010D503001057
:10014000CD010010CD010010CD010010CD01001037
:10015000CD010010CD010010CD010010CD01001027
:10016000CD010010CD010010CD010010CD01001017
:10017000CD010010CD010010CD010010CD01001007
:10018000CD010010CD010010CD010010CD010010F7
:10019000CD010010CD010010CD010010CD010010E7
:1001A000CD010010CD010010CD010010CD010010D7
:1001B000CD010010CD010010CD010010CD010010C7
:1001C00000BE00BE00BE00BE00BE00BE00F03FF894
:1001D000103800BE00202049086006C881F3088856
:1001E00010471E48006800282DD10CA40ECC002911
:1001F00002D000F010F8F9E719491A4A002000E08F
:1002000001C19142FCD1184988471849884700BE6E
:10021000FDE701C901C29A42FBD370477C0C021072
:10022000C0000020441000200C1C0210000004201C
:10023000000004200C1C02100010042000100420F8
:100240000000000070470A4812F094FF0047EFF3E7
:100250000580C0B27047000008ED00E0000000D04B
:1002600050100020E4DE0020CD020010190D011016
:1002700057560000F8B5C046F8BC08BC9E4670470B
:10028000F8B5C04610B5064C2378002B07D1054BB6
:10029000002B02D0044800E000BF0123237010BDF2
:1002A000382A00200000000084020010044B10B522
:1002B000002B03D00349044800E000BF10BDC04636
:1002C000000000003C2A002084020010164B002B86
:1002D00000D1144B9D46402292029A1A9246002168
:1002E0008B460F461348144A121A17F093FC0F4B13
:1002F000002B00D098470E4B002B00D098470020D1
:10030000002104000D000D48002802D00C4810F018
:1003100006FD16F0FDFF200029000CF0DBFD10F0BB
:10032000FBFCC046000008000000042000000000A4
:1003300035CE001050100020E4DE00201F0D01100B
:10034000000000007046C0082CD3EFF309808169DB
:1003500002390978002929D101B50FC8B8470CBC6A
:1003600003C29E461E4B06CB91421ED0083B1A602C
:10037000002909D0EFF3098020388863F0C0444693
:100380004D4656465F46F0C0906B1030F0C8A04610
:10039000A946B246BB4680F309882038F0C802203F
:1003A000C0430047EFF30880D1E770470D4A136858
:1003B0009942FAD801B5890053589C460FC8E047C6
:1003C0000CBC10609E46704701B50BF0F9FF03BCF2
:1003D0008E46C7E701B50BF0B1FF03BC8E46C1E7FF
:1003E00058040020CCE00110102304E0202302E098
:1003F000302300E040239C46F0B404AE7546E80884
:1004000001D3EFF309860E4F0FCE0FC70FBC0FC7F6
:100410004046494652465B460FC71DCE3100A60AEC
:1004200000D304316E0900D248311FC7EFF30980B1
:100430006946EFF3148663C76046014910F008F877
:1004400054DE002001480421014B184750060020CB
:100450008531011002B47146490849000956490026
:100460008E4402BC7047C04602B471464908490038
:10047000095C49008E4402BC7047C0460022430814
:100480008B4274D303098B425FD3030A8B4244D35C
:10049000030B8B4228D3030C8B420DD3FF2209029E
:1004A00012BA030C8B4202D31212090265D0030B5D
:1004B0008B4219D300E0090AC30B8B4201D3CB0353
:1004C000C01A5241830B8B4201D38B03C01A524195
:1004D000430B8B4201D34B03C01A5241030B8B4297
:1004E00001D30B03C01A5241C30A8B4201D3CB0282
:1004F000C01A5241830A8B4201D38B02C01A524167
:10050000430A8B4201D34B02C01A5241030A8B4269
:1005100001D30B02C01A5241CDD2C3098B4201D381
:10052000CB01C01A524183098B4201D38B01C01AFF
:10053000524143098B4201D34B01C01A5241030976
:100540008B4201D30B01C01A5241C3088B4201D325
:10055000CB00C01A524183088B4201D38B00C01AD2
:10056000524143088B4201D34B00C01A5241411AF9
:1005700000D20146524110467047FFE701B5002006
:1005800000F0F0F802BDC0460029F7D076E77047CA
:1005900003460B437FD4002243088B4274D30309E4
:1005A0008B425FD3030A8B4244D3030B8B4228D385
:1005B000030C8B420DD3FF22090212BA030C8B42AB
:1005C00002D31212090265D0030B8B4219D300E04B
:1005D000090AC30B8B4201D3CB03C01A5241830BD0
:1005E0008B4201D38B03C01A5241430B8B4201D380
:1005F0004B03C01A5241030B8B4201D30B03C01AA9
:100600005241C30A8B4201D3CB02C01A5241830A22
:100610008B4201D38B02C01A5241430A8B4201D351
:100620004B02C01A5241030A8B4201D30B02C01A7B
:100630005241CDD2C3098B4201D3CB01C01A5241E2
:1006400083098B4201D38B01C01A524143098B426B
:1006500001D34B01C01A524103098B4201D30B0154
:10066000C01A5241C3088B4201D3CB00C01A524179
:1006700083088B4201D38B00C01A524143088B423E
:1006800001D34B00C01A5241411A00D201465241D7
:10069000104670475DE0CA0F00D04942031000D3F6
:1006A0004042534000229C4603098B422DD3030A4B
:1006B0008B4212D3FC22890112BA030A8B420CD35B
:1006C000890192118B4208D3890192118B4204D384
:1006D00089013AD0921100E08909C3098B4201D304
:1006E000CB01C01A524183098B4201D38B01C01A3E
:1006F000524143098B4201D34B01C01A52410309B5
:100700008B4201D30B01C01A5241C3088B4201D363
:10071000CB00C01A524183088B4201D38B00C01A10
:100720005241D9D243088B4201D34B00C01A5241E7
:10073000411A00D20146634652415B10104601D374
:100740004042002B00D54942704763465B1000D3FE
:10075000404201B5002000F005F802BD0029F8D0A4
:1007600016E770477047C046D0400B1CD1409C46EE
:10077000203AD3401843524263469340184370478F
:100780009140031C90409C46203A934019435242AA
:100790006346D340194370478446101C62468C461A
:1007A000191C634600E0C0461FB502F029F8002876
:1007B00001D40021C8421FBD10B501F081FF4042A5
:1007C000013010BD10B502F01BF8002801DB00203D
:1007D00010BD012010BDC04610B502F011F8002870
:1007E00001DD002010BD012010BDC04610B501F094
:1007F000A3FF002801DC002010BD012010BDC04671
:1008000010B501F099FF002801DA002010BD012089
:1008100010BDC0468446081C6146FFE71FB500F0C6
:100820002BFD002801D40021C8421FBD10B500F0E7
:10083000ADFC4042013010BD10B500F01DFD002898
:1008400001DB002010BD012010BDC04610B500F036
:1008500013FD002801DD002010BD012010BDC046A1
:1008600010B500F0BBFC002801DC002010BD012009
:1008700010BDC04610B500F0B1FC002801DA002020
:1008800010BD012010BDC0461C2101231B0498424D
:1008900001D3000C10391B0A984201D3000A083911
:1008A0001B09984201D30009043902A2105C4018C8
:1008B0007047C0460403020201010101000000006C
:1008C00000000000002B15D1002A13D1002906DBFF
:1008D00001DC002806D00020C043410802E080214E
:1008E0000906002007B4024801A14018029003BD88
:1008F00075FEFFFF03B4684601B5029800F07EF96B
:10090000019B9E4602B00CBC7047C046002B11D123
:10091000002A0FD1002900D1002802D00021C943AC
:10092000081C07B4024802A14018029003BDC0464B
:1009300035FEFFFF03B4684601B5029800F09CF84D
:10094000019B9E4602B00CBC7047C046F0B5CE4637
:10095000474615042D0C2E0080B50704140C3F0CDF
:100960009946030C7E435D43674363437F19340C10
:10097000E4199C46A54203D980235B029846C444EF
:100980004B4643435143250C36046544360C24043E
:10099000A4195B19591820000CBC90469946F0BD6B
:1009A0009E2110B5C905041CFFF764FF002803D180
:1009B000201C00F0BDFF10BD9E21201CC90500F0C9
:1009C000DDFD00F0B5FF80231B069C466044F2E786
:1009D00070B500220C4B04000D00FFF711FF00283A
:1009E00004D12000290002F049FD70BD064B002211
:1009F0002000290002F0DEF902F040FD80231B06F2
:100A00009C466044F1E7C0460000E04110B500217B
:100A1000041CFFF711FF002803D1201C00F00CF884
:100A200010BD80231B06E01800F006F802000B0042
:100A3000002150429941F3E770B502F0C1FD002258
:100A40000B4B0D00040001F043FFFFF7C1FF060050
:100A500002F084FD0022074B01F03AFF02000B0078
:100A60002000290002F0A6F9FFF7B2FF310070BDA7
:100A70000000F03D0000F041F0B54F464646D64636
:100A8000C0B5040082B00D00914698468B422FD825
:100A90002CD04146484602F069FE2900060020009D
:100AA00002F064FE331A9C46203B9A4600D576E05D
:100AB0004B46524693401F004B46624693401E00F1
:100AC000AF4228D825D05346A41BBD41002B00DAE5
:100AD0007BE00022002300920193012352469340C1
:100AE0000193012362469340009318E08242D0D9DB
:100AF00000220023009201930A9B002B01D01C606E
:100B00005D600098019902B01CBC90469946A246CF
:100B1000F0BDA342D7D9002200230092019363467F
:100B2000002BE9D0FB079846414672080A437B0830
:100B300066460EE0AB4201D1A2420CD8A41A9D41F8
:100B4000012024196D410021013E24184D41002E41
:100B500006D0AB42EED9013E24196D41002EF8D1EA
:100B600000980199534600196941002B23DB2B00A3
:100B70005246D3402A006446E2401C00534615000A
:100B8000002B2DDB26005746BE403300260067466B
:100B9000BE403200801A994100900191ACE7624654
:100BA00020239B1A4A46DA406146130042468A4097
:100BB00017001F4380E7624620239B1A2A006646DF
:100BC0009A402300F3401343D4E7624620230021D8
:100BD0009B1A0022009101920122DA40019280E7E3
:100BE0002023624626009B1ADE402F00B046664650
:100BF000B74046463B003343C8E7C046F0B583B034
:100C000016001F000090019102F0BCFD04000D00D1
:100C100002000B0030003900FFF798FE009A019B9C
:100C2000121A8B41089920000A604B60290003B01A
:100C3000F0BDC046F8B54746CE4643025B0A4400C5
:100C4000C20F9C464800DD004B02240E5B0A000EDA
:100C500080B5984626009146C90FDB00271A8A42C4
:100C600029D0002F15DD00284AD1002B00D095E0B7
:100C7000ED08FF2C00D188E06B025B0AE6B25B0254
:100C8000F605580A3043D20710430CBC90469946EB
:100C9000F8BD002F00D087E0601CC0B2012800DC46
:100CA000B6E0EE1A720100D5C5E0002E3DD100225B
:100CB00000260023E3E7002F00DC96E000285DD04B
:100CC000FF2C60D08022D20413431B2F00DDECE008
:100CD0002022D21B18009340F8405A1E9341034330
:100CE000ED186B017BD50134FF2C00D1B7E0012258
:100CF00007262A406B089A4D1D4015432E4029E0D7
:100D0000FF2CB5D08022D20413431B2F00DDB2E0AC
:100D10002022D21B19009340F9405A1E93410B43E5
:100D2000ED1A6B015BD5AD01AE093000FFF7ACFDEC
:100D300005388640844265DC041B330020200134E2
:100D4000E340041BA640751EAE41334307261D0039
:100D500000241E4001224B461A40002E04D00F23CF
:100D60002B40042B00D004356B0100D480E7013404
:100D7000E6B2FF2C2FD1FF26002380E7002B52D1B3
:100D8000FF2C00D074E70A00ED08002DF3D080237B
:100D9000DB032B435B025B0AFF2670E7013F002F5A
:100DA000BED0FF2CB1D163E7002C47D0FF2869D01B
:100DB0008024E4047A4225431B2A00DDC5E02C0090
:100DC0002026D440B21A95406A1E954125435D1BEA
:100DD00004008946A5E7AB015B0A50E70024012225
:100DE0004B461A406B07BAD142E7002F3BD1013482
:100DF000E0B201284ADDFF2CBDD00726ED186D08B2
:100E00002E40A7E70723574D241A35401E40A1E77F
:100E1000002C1BD1002D6ED1002B00D19AE00A00CE
:100E20001D003C0024E7013F002F00D158E7FF2CB4
:100E300000D04AE7A7E75E1B894676E7002D1CD164
:100E40000A00FF281FD004001D0011E7002D5DD10E
:100E5000002B17D180230022DB03FF260FE70A00B7
:100E6000FF2600230BE7002C21D1002D66D1FF289F
:100E7000E9D11D0087E7012352E77A1CA7D0FA4386
:100E8000FF2899D10A001D00FF24F1E6002E21D190
:100E9000002D4FD0002B4CD0ED186B019ED5314B5F
:100EA00007362E4001241D4054E7012318E7FF2890
:100EB000DFD08024E4047F4225431B2F4DDC202615
:100EC000F61B2C00B540FC406A1E95412543ED18E9
:100ED000040006E7002DCCD0002B00D153E7802181
:100EE0006046C903084203D04046084200D11D00B5
:100EF0000121114047E7002B00D1B9E6EA1A500161
:100F000025D507265D1B2E40894623E7FF24002BAD
:100F100000D1ADE680226046D203104204D04046A4
:100F2000104201D11D00894601224B46FF241A4080
:100F30009EE62B00DD080A0000249DE67A1CC6D040
:100F4000FF43FF28B9D11D001DE701253FE7151E0E
:100F500000D044E70022002391E60125B7E7C04610
:100F6000FFFFFF7DFFFFFFFBF8B557464E464546A6
:100F7000DE464402E0B546008846640A360EC70FD6
:100F8000002E63D0FF2E24D08023E400DB041C431A
:100F9000002399469B467F3E434642465D02D20F60
:100FA0005B006D0A1B0E9046924665D0FF2B55D014
:100FB00080220021ED00D2047F3B1543F61A434600
:100FC0004A467B400F2A00D98DE06D489200825836
:100FD0009746002C54D108239946063BFF269B4692
:100FE000DAE70025534602291BD0032900D1BFE0D0
:100FF000012928D030007F30002820DD6A0704D086
:101000000F222A40042A00D004352A0103D53000DB
:101010005C4A80301540FE2803DCAC01640AC2B291
:1010200001E0FF2200246402D205600ADB071043BE
:1010300018433CBC90469946A246AB46F8BD0122F7
:10104000101A1B287CDD00220024ECE7002C1DD1A7
:1010500004239946033B00269B469DE7FF3E002D57
:1010600020D1022143464A467B400A430F2AD8D862
:101070004548920082589746002D19D10121F1E789
:101080000C239946093BFF269B4685E72000FFF786
:10109000FBFB7626431F9C4000237642361A994676
:1010A0009B4679E74A4603231A439146032186E784
:1010B0002800FFF7E9FB431F36189D4076360021D4
:1010C0007DE780240023E403FF22ACE70025802392
:1010D000DB031C4228D01D4226D12B435C02640A4C
:1010E0004346FF229FE762016C01A24224D21B21EA
:1010F0000025013E012710006D005200002801DB91
:10110000944201D8121B3D4301390029F3D1140048
:10111000621E944125436DE7BA4659462500534661
:10112000022900D061E77CE78023DB031C436402D3
:10113000640A3B00FF2276E7121B1A210125D9E73A
:101140009E362A00B5402C00C240651EAC411443B7
:10115000620704D00F222240042A00D00434620126
:1011600003D4A401640A00225DE7012200245AE7A7
:101170008024E4032C436402640AFF2253E7C04640
:10118000A4D10110FFFFFFF7E4D1011070B54200B8
:101190004E024C0045026D0A120EC30F760A240E51
:1011A000C90FFF2A0FD0FF2C11D00120A24200D07E
:1011B00070BDB542FCD18B420DD0002AF8D1280079
:1011C000451EA841F4E70120002DF1D1EBE70120F5
:1011D000002EEDD1E9E70020EAE7C04670B54A00ED
:1011E0004E02450244006D0A240EC30F760A120E09
:1011F000C90FFF2C15D0FF2A0ED0002C15D1002AC4
:1012000001D1002E1CD0002D14D08B4227D00220FB
:10121000013B1840013870BD002EEED00220404244
:10122000F9E7002DFAD1FF2A0ED0002A0ED1002EA8
:10123000EDD00BE001230139994308000130EAE7C2
:101240000020002DE7D0E2E7002EE7D18B42DED16F
:10125000944205DD0221581E08400138DBE70024D6
:10126000A24204DCB542D2D80020B542D3D2581EE7
:10127000012398430130CEE730B5420044024D02CD
:10128000C30F4800640A120E6D0A000EC90FFF2A30
:1012900012D0FF280CD0002A12D1002819D1002D1D
:1012A00017D1002C2BD00220013B1840013826E03A
:1012B000002DF0D0022022E0002CFBD1FF281FD00F
:1012C00000281FD1002D1DD10220013B18400138FC
:1012D00015E0002C0ED08B42E5D10022904204DCB8
:1012E000AC42E0D80020AC4209D2581E01239843FA
:1012F000013004E00123013999430800013030BD79
:10130000002DD7D18B42CED18242E7DD0221581E7B
:1013100008400138F3E7C046F0B54E46574645460B
:10132000DE46E0B543025B0A450083B00F1C9946D8
:101330002D0EC60F002D57D0FF2D24D08020DB00AE
:10134000C0041843002381469A469B467F3D7C0299
:101350007A00FB0F640A120E984623D0FF2A4BD066
:10136000E30080240020E4047F3A1C43AD186B1C8A
:1013700047460193534677403A000F2B48D87D49A2
:101380009B00CB589F46002B00D085E008339A463F
:10139000063B9B467C027A00FB0FFF25640A120E77
:1013A0009846DBD1002C00D090E0524601231A432E
:1013B00092460120DBE74C4658461700022824D00D
:1013C000032800D1CFE00022002301284DD158028C
:1013D000D205400AFF071043384303B03CBC904697
:1013E0009946A246AB46F0BD002B5BD104239A463A
:1013F000033B00259B46AAE7FF35002C60D15246EF
:1014000002231A4392460220B1E7FF220023DEE7BF
:101410004B461B0C9C464B462604360C1804614672
:101420003300220C6446000C43434E435043544364
:1014300080191A0C1218964203D9802149028C4651
:1014400064441B041B0C1004C01883015E1EB341CE
:10145000800E1843130C1B199B0103431C0023012E
:1014600079D5012362081C401443019A7F32002A77
:101470004DDD630704D00F232340042B00D0043438
:10148000230103D53C4B019A1C408032FE2ABCDC70
:10149000A3015B0AD2B29AE70C239A46093BFF25C7
:1014A0009B4654E71800FFF7EFF94A46431F76259D
:1014B0009A4000236D4291462D1A9A469B4646E774
:1014C000524603231A439246032050E72000FFF7B9
:1014D000DBF9431F2D1A9C40763D002047E780230F
:1014E0000027DB03FF2272E7424666E74C463200E4
:1014F000584662E780234A46DB031A4222D01C4248
:1015000020D123435B025B0A4746FF225FE70123AA
:101510009A1A1B2A21DC23000199D3409E318C406A
:101520001A0023005C1EA34113435A0704D00F2264
:101530001A40042A00D004335A0111D49B015B0ADB
:10154000002244E780234A46DB0313435B025B0A25
:101550003700FF223BE7019587E70022002336E7AB
:101560000122002333E78023DB0323435B025B0A72
:10157000FF222CE724D20110FFFFFFF7F8B5474602
:10158000CE464400C20F80B547024802400A844656
:10159000664648007F0A240EF60025009046FB00B0
:1015A000000EC90FB146FF2800D185E00126714029
:1015B000261A914257D0002E43DD002800D07FE04C
:1015C0004946002900D1AAE0013E002E00D0F7E0F4
:1015D0005B1A5A0100D48BE09B019C092000FFF7A5
:1015E00053F905388440854200DDD3E0451B2300D4
:1015F00020200135EB40451BAC40621E9441234343
:10160000072400251C40012241460A40002C04D03A
:101610000F211940042900D00433590100D480E07F
:101620000135ECB2FF2D00D0A3E0FF2400235B02C4
:10163000E405580AD207204310430CBC9046994653
:10164000F8BD002E74D1601CC0B2012800DCA7E0F8
:101650004A469C1A620100D5B6E0002CBED1002299
:1016600000240023E3E7002E00DC85E0002846D0BC
:10167000FF2C49D080224846D204104381460122E3
:101680001B2E09DC20204C46801B84404A4620004B
:10169000F240441EA04102439B185A0128D501354F
:1016A000FF2D00D1A8E00122072494491A405B08CD
:1016B0000B4013431C40A6E7002E00D078E775E7E7
:1016C000FF2C54D080224946D2041143894601227E
:1016D0001B2E09DC20214846891B88404A46010010
:1016E000F240481E81410A439B1A5A0100D573E714
:1016F000012241460A40590700D089E711E04846D7
:10170000002858D1FF2C0CD1DB08002B00D18CE72E
:101710008020C00303435B025B0AFF2487E7FF2CA2
:1017200025D0DB08FF2DF0D05B025B0AECB27EE730
:10173000002C4DD0FF2818D08024E40472422343AB
:101740001B2A00DDC4E01C002025D440AA1A9340C7
:101750005A1E934123434A460500D31A884638E768
:10176000721CF8D0F243FF28EAD10A004B46FF254D
:10177000D7E79B015B0A5AE7002E41D1651CE9B20D
:10178000012945DDFF2D00D14FE707244B445B08BD
:101790001C4038E707225A4B2D1A2340144032E7E9
:1017A000002C1DD1002B7AD14B46002B00D191E0AB
:1017B0000A000025B5E7013E002E19D14B446CE725
:1017C000FF2C84D1FF25ACE74A468846D41A05E7AA
:1017D000002BC5D10A00FF28C8D005004B46A0E762
:1017E000002B49D14B46002B77D00A00FF2598E704
:1017F000FF2C00D043E787E70A00FF24002316E709
:10180000002C15D1002B57D1FF28E6D14B467BE7A2
:10181000002C20D1002B57D04946002953D04B44EF
:101820005A0168D50724364A1C4001251340EAE6D0
:10183000FF28EBD08022D204764213431B2E53DCC8
:101840002025AD1B1A00AB40F2405C1EA3411343A0
:101850004B44050021E7002BD8D04946002900D190
:1018600052E78021C9030F4200D14DE7604608428C
:1018700000D049E74B4647E74846FF25002800D1FE
:101880004FE78022D203174204D06046104201D1B4
:101890004B46884601224146FF250A4041E748461B
:1018A00000281FD01A1A500120D54A460724D31AFF
:1018B0001C4088460025A6E6741CC9D0F643FF28C4
:1018C000BCD14B4620E799464B460025DB082BE769
:1018D000012340E700220023A9E680230022DB0346
:1018E000FF24A4E600251CE70123B1E7002AF1D07C
:1018F00013000025FCE60025FAE6C046FFFFFF7D49
:10190000FFFFFFFB42024B0240004900520A5B0A04
:10191000090E000EFF2806D00020FF2902D1180072
:10192000431E98417047FE38002AFBD1F4E7C046B9
:1019300041024200C30F490A120E00207E2A0DD92F
:101940009D2A0CD8802000040143952A0ADC9620A9
:10195000821AD1404842002B00D108007047034A48
:101960009818FBE7963A9140F4E7C046FFFFFF7FE7
:1019700070B500283DD0C317C5185D40C40F2800BE
:10198000FEF782FF9E22121A962A07DCD2B208289E
:1019900033DD083885406802400A23E0992A0BDDD0
:1019A000052329001B1AD94003001B339D402B003F
:1019B0005D1EAB4119430D00052801DD431F9D400D
:1019C0002B000F490B406E0709D00F263540042D20
:1019D00005D004335D0102D59F220B40121A9B01F2
:1019E000580AD2B24002D205400AE407104320430D
:1019F00070BD002400220020F4E76802400AF1E7ED
:101A0000FFFFFFFB70B5041E34D0FEF73DFF9E22A2
:101A1000121A962A07DCD2B208282EDD0838844034
:101A20006002400A21E0992A09DD030021001B33EE
:101A300099404B1E994105231B1ADC400C43052895
:101A400001DD431F9C4023000D490B40650709D071
:101A50000F252C40042C05D004335C0102D59F22B5
:101A60000B40121A9B01580AD2B24002D205400A1A
:101A7000104370BD00220020F7E76002400AF4E73F
:101A8000FFFFFFFBF0B54F464646D6460C00090364
:101A9000C0B5490A470F5E0039431F03DB0F9C4660
:101AA00065007B0A570F1F436D0DE40F760DA146AD
:101AB000C000B846D200AB1B64457BD0002B5FDD75
:101AC000002E00D0A4E03E00164300D112E15E1EBD
:101AD000002E00D09EE1871A4346B842804101257E
:101AE000C91A4042091A0B0200D431E149024E0AD8
:101AF000002E00D16EE13000FEF7C6FE0300083B69
:101B00001F2B00DD61E120223900D21A9E40D14016
:101B10009F400E439D4200DD51E15D1B6B1C1F2B5E
:101B200000DD7CE12021C91A3D0030008F40884053
:101B3000DD40791E8F41310007222843D94000251E
:101B400007433A40002A09D00F233B40042B05D01D
:101B50003B1DBB42BF417F42C9191F000B0200D48D
:101B600026E26A1CC64B55056D0D9A4200D106E16E
:101B7000C44AFF080A40530752023B43120B8EE04F
:101B8000002B00D0B8E06B1C5B055B0D012B00DC6B
:101B900030E1871A4346B842B641CB1A76429E1BC3
:101BA000330200D54CE13B003343A1D10022002495
:101BB000002570E0002B00DCE5E0002E00D183E082
:101BC000AF4EB54260D0802636043743B846382B36
:101BD00000DC3EE1434613431F007A1E97413F1845
:101BE00087428041404209180B0200D4B0E0A44B68
:101BF00001359D4200D1C3E0A24A7B080A40012181
:101C00000F401F435108D30707221F433A4099E76B
:101C10009B4EB54238D0802636043743B846382B21
:101C200000DDDCE01F2B00DC30E11E004746203EDB
:101C3000F740BC46202B04D04026F31A46469E406F
:101C40003243170063467A1E97411F43CCE0002BB6
:101C500000D104E24346134300D159E14B07C008C9
:101C600018438023C9081B03194208D04546ED08D4
:101C70001D4204D14346D008590708432900420FAA
:101C8000C9007F4D1143C0004B07CA087C49C008FA
:101C900003438D4268D012036D05120B6D0D0021B8
:101CA00012031800130B0A0D12051A43764B2D056B
:101CB00013402B435B00E4075B08234319001CBC63
:101CC00090469946A246F0BD3E00164312D05E1ED5
:101CD000002E00D000E187188742804141444042F5
:101CE000091801250B0233D5022585E76446330028
:101CF000414610001D00C7E7002D00D0DAE00C00BF
:101D00000443F3D05C1C00D19FE15D4CA64200D19E
:101D10002FE1DB43382B00DD66E11F2B00DD83E183
:101D200020240500E41A0F00DD40D940A0404346BE
:101D3000A7405B1A441EA04198462F433843171A08
:101D4000BA42924143465242991A64463500CAE665
:101D500007223A40002A00D0F6E64B07CA08484955
:101D6000FF083B438D4296D11900114300D19EE1FB
:101D7000802109030A431203120B414D8FE715001E
:101D8000002200238BE7002B00D0C7E06B1C5F050F
:101D90007F0D012F00DCF1E0394DAB4200D1B9E0FD
:101DA00085180A0085428941424449425118072258
:101DB000CF076D082F4349083A401D00C2E60722AD
:101DC0003049ED1A31403A40BCE63E0028388640A2
:101DD00000279FE63800FEF757FD20308EE6434689
:101DE00013431F007A1E9741C71BB84280414042EF
:101DF000091A78E60E003B0006431343002D61D11B
:101E0000002E00D0F4E0002B00D11BE16446390025
:101E1000100039E71A4FBB427AD03300FFE630009A
:101E20001F3DE840202B03D04021CB1A9E40374372
:101E30007B1E9F41072207433A400021002589E786
:101E4000171A4346BA42B641591A76428E1B644667
:101E50004EE61F2B00DDADE020264746F61AB740C0
:101E6000B9461700B246DF404E463E43370056465D
:101E7000B240561EB24117434246DA408918AEE6D8
:101E8000FF070000FFFF7FFFFFFF0F802026474670
:101E9000F61AB740B9461700B246DF404E463E43F9
:101EA00037005646B240561EB24117434246DA400A
:101EB000891A99E77F4CA6425BD0802424045B42B8
:101EC000214327E7002E0CD1002B00D1CBE0644644
:101ED00039001000774DD7E6764FBB4218D033005B
:101EE00075E6002B14D04B07C00818438023C9089F
:101EF0001B03194207D0FC081C4204D17907D00803
:101F00000843E14621004C46420FC9001143C0007E
:101F1000684DB9E61D0000220023C0E6002D5BD10C
:101F20000D00054300D1E2E65D1C00D1B0E0614D3B
:101F3000AE421FD0DB43382B71DC1F2B00DD96E057
:101F400020250F00ED1AAF40B9460700AA46DF4032
:101F50004D463D432F005546A840D940451EA84157
:101F600088440743BF18974292415142414435008B
:101F70003AE6644635004146100085E60B0003430F
:101F8000002D00D063E6002BF5D04346134300D16B
:101F90007AE6871887428041072241444042091867
:101FA0003A400B0200D4D5E6434B01351940C9E550
:101FB000380069E61E004746203EF740BC46202B0D
:101FC00004D04026F31A46469E403243170063462B
:101FD0007A1E97411F4302E6364DAE42CAD0802595
:101FE0002D045B422943A6E70843411E8841A6E62B
:101FF000002B00D148E6871A4346B842B641CB1AB7
:1020000076429E1B33024BD5171A4346BA42924181
:10201000591A5242891A072264463A4092E501430E
:102020000F00791E8F419DE71C000F00203CE74008
:10203000202B03D04024E31A99400843411E8841D5
:1020400038437CE60022002425E6171A4346BA42AC
:102050009241591A5242891A6446350043E5414675
:102060001000144D10E680220024120380E61D00AB
:102070000F00203DEF40BC46202B03D04025EB1A3B
:102080009940084307006346781E87411F4369E76C
:10209000871897429B4141445B42C9183500A3E52C
:1020A0003B003343CED0072231003A4052E60023B2
:1020B0001A00F4E5FF070000FFFF7FFFF0B5574669
:1020C000DE464E464546E0B5834607000E0348000F
:1020D00085B092461C00360B400DCD0F002800D174
:1020E0009DE0954B984239D08023F6001B041E4397
:1020F000924A7B0F3343994694460300634400930E
:1021000000230026FF00029323031B0B9846630065
:10211000E40F52465B0D019400D1B3E086498B4237
:1021200000D19EE04246D100802212040A4351466B
:10213000490F11438B46814952468C4600996344AE
:10214000CB1A0021D20000932B0063409A460F2E39
:1021500000D905E17A4BB6009B599F465B46334355
:10216000994600D0B8E00223082600270090029389
:10217000CAE7CB463A0002990195019B9A4602298B
:1021800027D0032900D180E2012944D06D49009B6A
:102190008C4663441C00002C38DD530700D013E24A
:1021A000D2085B46DB0109D55946674B19408B467F
:1021B0008021C9008C46009B63441C00634B9C42F9
:1021C00007DC5B4664055F075B0217431B0B620D70
:1021D00002E000230027584A00211B031C0B0B0DB3
:1021E0001B05234314055A4A380013401C43534629
:1021F0006400DB0764081C43210005B03CBC90462A
:102200009946A246AB46F0BD0122524201231B1B58
:10221000382B00DCADE1002200230027DCE75B4621
:10222000334399465ED0002E00D18AE13000FEF79C
:102230002BFB03000B3B1C2B00DD7BE11D22D31A83
:102240005A460100DA4008398E4013005F46334396
:1022500099468F403F4B00261B1A009300230293A0
:1022600052E7414653460B433B499B468C46009BF5
:10227000634400935B46002B3BD1022300221E43A4
:10228000022161E7434613439B4637D04346002B68
:1022900000D162E14046FEF7F7FA03000B3B1C2B2E
:1022A00000DD53E102004146083A914088461D2175
:1022B000CB1A5146D9400B0041460B439B4653462F
:1022C00093401A00009B25499C46604403008C46BD
:1022D00063440093002137E70323B14600900C26A6
:1022E000029311E700230093013304260027029391
:1022F0000AE70323C3461E43032125E701331E4398
:102300000022012120E700239A46802300271B0397
:10231000094A61E7802349461B03194200D1E2E0E4
:102320005946194200D0DEE00B431B0317001B0B7C
:10233000A246014A50E7C046FF07000001FCFFFF2C
:1023400064D20110FF030000FFFFFFFEFE07000044
:10235000FFFF0F800DFCFFFF01F8FFFFF3030000FC
:10236000D94500D9CBE000D1C6E03C004846002763
:10237000009B013B00935B46160E1B021E4313029B
:10238000984633041B0C9946310C0191FEF7FCF87A
:102390004A4642430B04210C050019438A4207D9DF
:1023A0008919013D8E4203D88A4201D9851E8919B7
:1023B000881A0199FEF7E8F809048C464A46210478
:1023C00064464243090C030021438A4204D9891917
:1023D000013B8E4200D8F1E02D041D43AB4643463D
:1023E000891A4246280C12041D0C5B46140C22006C
:1023F0001B041B0C5A4303946B43444302956843EC
:102400001B19150CEB189C4203D980246402A446C6
:1024100060441C0C15041B042D0C20185D1981420E
:1024200077D373D00C1AA24A7D1BAF42BF419446AA
:10243000009B7F426344E01B1C00864200D1DBE02E
:102440000199FEF7A1F84A4642430B04290C070004
:1024500019438A4207D98919013F8E4203D88A421B
:1024600001D9871E8919881A0199FEF78DF8090488
:102470004A46894629044D464243090C0300294334
:102480008A4207D98919013B8E4203D88A4201D971
:10249000831E89193F04891A3A00039F1A433800A2
:1024A00013041B0C584381460298150C6F43434399
:1024B00045434846000C8446DB1963449F4203D9D8
:1024C000802040028446654448461F0C00041B04DB
:1024D000000C7D191818A94200D284E000D17FE0D9
:1024E00001231A4357E680234A461B0313431B0369
:1024F0001B0BAA466F4A6FE6BA4200D935E74B4636
:10250000DC0758087B081C43FF0734E70024AF4270
:1025100089D247444745A4415B466442A4196418E4
:10252000013BA6421ED2A0426DD800D1B6E0241ACB
:102530009B4678E703005A46283B9A40002791467D
:1025400088E65846FEF7A0F9203072E603005246AE
:10255000283B9A4093460022B4E65046FEF794F991
:1025600020309AE6A642E2D1B845DCD9341A9B461F
:1025700059E71F2B65DC504C0099A4465C4661442A
:1025800008008C4011008240D940501E82410C430B
:1025900014435A46DA401300620709D00F22224042
:1025A000042A05D02200141D9442894149425B1837
:1025B0001A0262D50122002300270DE68A4200D8C4
:1025C0000AE7831E891907E70F231340042B00D164
:1025D000E6E5171D9742924153429B44FA08E0E515
:1025E000002800D1D7E57118531EB14227D3A94264
:1025F00015D358D01A0073E7002B00DC04E6012342
:1026000000229B44CDE502234744474589415B4274
:102610009C46494289190C19E344241A03E74346AE
:102620005F0047459B41B8465B429E19023A8919B3
:10263000A94200D054E7404500D051E7ABE51A006D
:10264000F6E71F215F4649420C1BE740202B07D0CD
:102650001A49009B8C46634418005B4683401A432A
:10266000501E82413A4307270023174009D00F210B
:10267000002311401400042995D122005F075B025A
:102680001B0BD20817430022A6E5802359461B03E3
:102690000B431B0317001B0B064A9DE5BD42B2D836
:1026A0009B460024BFE68045B9D31A00C3E7C04665
:1026B000FF030000FF0700001E0400003E040000AE
:1026C000F0B54F464646D6468446C0B58046194EBC
:1026D00018030F034D00000B5C0082463F0B6D0D8D
:1026E000C90F9146640DDB0F0120B5420AD0B442F8
:1026F00003D0A54201D157450CD01CBC9046994649
:10270000A246F0BD66463E43F7D1AC42F5D15446F1
:102710001443F2D10120C845EFD1994207D0002DD2
:10272000EBD163461F433800471EB841E5E7002060
:10273000E3E7C046FF070000F0B54F464646D646E1
:102740004D00C0B50E03C90F8A462C491F035C001B
:102750008046360B6D0D91463F0B640DDB0F8D42AD
:102760001ED08C4216D0002D1ED130438446002C42
:1027700001D13A4323D06246002A1AD09A4529D083
:10278000514602200139084001381CBC9046994648
:10279000A246F0BD39001143E5D002204042F4E7E3
:1027A0003043FAD1AC420FD0002C0FD13A43E7D0DE
:1027B0000CE00122013B934318000130E5E763463A
:1027C0000020002BE1D0DBE73A43E6D19A45D7D190
:1027D000A542D5DCA54205DBBE42D1D808D00020F9
:1027E000BE42D2D250460123013898430130CCE793
:1027F000C845C5D80020C845F4D3C6E7FF07000088
:10280000F0B54F464646D6464D00C0B50E03C90F3B
:102810008A462E491F035C008046360B6D0D91469B
:102820003F0B640DDB0F8D4218D08C4211D0002D70
:1028300018D130438446002C1ED13A431CD1634644
:102840000020002B30D051460220013908400138C9
:102850002AE039001143EAD0022025E03043FBD1C1
:10286000AC4226D0002C26D13A4324D15146022036
:1028700001390840013817E06246002A0FD09A4516
:10288000E1D1A54205DBBE42DDD819D00020BE4211
:102890000AD25046012301389843013004E0012256
:1028A000013B9343180001301CBC90469946A24658
:1028B000F0BD3A43D0D19A45C5D1A542C3DCE0E78B
:1028C000C845C0D80020C845E3D3EDE7FF070000A6
:1028D000F0B55746DE464E464546E0B5834606000F
:1028E0000F03480087B092461D003F0B400DCC0FF0
:1028F000002800D16FE0DE4B984238D08023FF00E3
:102900001B041F43730F3B430193DA4B0027994687
:1029100000239B46F60081442B0369001B0B5246A3
:102920009846490DED0F002900D185E0D04B994222
:1029300000D173E04346DA0080231B041343524660
:10294000CC48520F84461343524600206144D200C3
:1029500089442100694000918C46012149448A46FE
:102960000F2F00D990E0C449BF00CF59BF465B4646
:102970003B43019300D06AE10223082700268146E9
:102980009B46C9E732005846019B614600910228E8
:1029900000D175E0032800D1FEE1012800D02CE130
:1029A00000230027002600253F032A0D3F0BB348D4
:1029B00012053A4302401B051343009A5B00D107FE
:1029C0005B080B433000190007B03CBC90469946A9
:1029D000A246AB46F0BD5B463B43019300D12FE1DD
:1029E000002F00D1A5E13800FDF74EFF03000B3B9F
:1029F0001C2B00DD96E11D22D31A5A460100DA4055
:102A00005E4608398F4013008E403B4301939C4B38
:102A100000271B1A994600239B467DE741465346F3
:102A20000B4393498C46E144002B00D01AE102226B
:102A30000220174300228CE7134300D10DE14346E7
:102A4000002B00D181E14046FDF71EFF02000B3A4A
:102A50001C2A00DD72E10100434608398B4098468C
:102A60001D239A1A5346D3401A0043461343524635
:102A70008A404946081A824989468144002068E70D
:102A80007B4B002700268EE7140C1204120C110059
:102A9000370C3604350C794328008C462E006043F1
:102AA0006044834656432100300C804658467943A3
:102AB00040440291844506D98846802149028C46CB
:102AC000E044414602913604010C360C00048B466A
:102AD00081191E0C1B041B0C0391190079438C46B1
:102AE000280075436544A8465843050C4544774380
:102AF000A94203D9802149028C466744290C8C469F
:102B000039000004000C2D042D186144AB440591DC
:102B10005946049101990F043F0C080C39005143A8
:102B20004243904602008C46090C8B4662437C432C
:102B300044445C44A04503D980214902884642446C
:102B4000210C884661460904090C8C46390059431A
:102B5000434370437E430F0CF6182404BE196444AB
:102B600042448C46B34203D980235B0298464044DA
:102B7000029B61469846049B370443449B46AB4501
:102B8000AD416B420D0405992D0C8C467F196744AD
:102B9000FD18A8465D462D19A542A44193466442FE
:102BA000A446C344DC448F42BF4198459B419345B2
:102BB0009241A445A4415B427F421F43360C5242DE
:102BC0006442BF192243BF18624638184302D20D2F
:102BD000039913436A020A43501E82416146ED0D78
:102BE0002A434E023243D90100D4B3E001265008F3
:102BF00032400243DE0732435B08224C5444002C2F
:102C000062DD510709D00F201040042805D0101DA7
:102C10009042924152429B180200D90104D580246F
:102C20001948E400034054441848844200DD27E773
:102C30005E075B02D2081F0B630516435B0DB2E60D
:102C4000002399460133042700269B4664E60323AC
:102C5000019781460C279B465EE60122012017431F
:102C6000002276E6032303201F43434671E6C04655
:102C7000FF07000001FCFFFFA4D20110FFFF0F803F
:102C80000DFCFFFFFF030000FFFFFFFEFE0700003B
:102C90000023802700933F030026434B83E6019BDC
:102CA0003200A446584670E6AC466EE6802701998D
:102CB0003F0339422DD03B422BD11F433F033F0BF3
:102CC00000951600384B6EE601252D1B382D00DDD2
:102CD00066E61F2D40DC35481C005044160082403B
:102CE0008440EE40501E824134431443EB4062075F
:102CF00009D00F222240042A05D02200141D94423C
:102D0000804140421B181A023ED5012300270026AD
:102D100049E68027019B3F031F433F033F0B00947D
:102D2000214B40E603005A46283B9A400026019278
:102D30006DE65846FDF7A8FD203057E603005246E1
:102D4000283B9A401300002293E65046FDF79CFD75
:102D500020307BE6CA4650E71F201E004042041B7D
:102D6000E640202D03D0124C5444A3401A43501E79
:102D70008241324307260027164009D00F20002346
:102D8000104014000428B9D122005E075B021F0B1B
:102D9000D2081643002306E680273F031F433F0364
:102DA0003F0B1600004BFEE5FF0700001E0400006D
:102DB0003E040000F8B557464E464546DE460C0038
:102DC0000903E0B5490A460F5F0031431E03DB0FDC
:102DD000760A9B46530F3343C84E6500C000E40F8C
:102DE000D2006D0DA24681467F0D9C469046B742AB
:102DF00000D1B9E05B46012673409B46EE1BA3451C
:102E000000D183E0002E63DD002F00D0B1E06346E7
:102E1000134300D123E1731E002B00D0BAE1861AC0
:102E20006346B04280410125C91A4042091A0B028B
:102E300000D447E149024B0A98464346002B00D193
:102E400089E14046FDF720FD0300083B1F2B00DD14
:102E50007CE120223000D21A4146D0409940020045
:102E60009E400A439D4200DD6AE15D1B6B1C1F2BE7
:102E700000DD94E1202110003500C91A8E40DA40AF
:102E80008840DD40711E8E41110007222843002535
:102E900006433240002A09D00F233340042B05D0CB
:102EA000331DB342B641764289191E000B0200D48D
:102EB0003DE26A1C914B55056D0D9A4200D119E116
:102EC0008F4AF6080A40570752023743120B9BE01D
:102ED000002E00D0C5E06E1C7605760D012E00DCBC
:102EE00048E16746861ACB1BB042BF417F42B846D5
:102EF0001F004346FF1A3B00B8461B0200D55FE1A6
:102F000037439AD100220024002579E0002E00DC0E
:102F1000FAE0002F00D18DE0784B9D4267D08023EE
:102F200067461B041F43BC46382E00DC52E1634653
:102F300013435A1E93411E1886428041404209188D
:102F40000B0200D4BEE06D4B01359D4200D1D2E0B2
:102F50006B4A73080A4001210E401E435108D307F3
:102F600007221E43324095E71E00164300D045E776
:102F700040E7624B9D423AD0802367461B041F43C3
:102F8000BC46382E00DDEBE01F2E00DC3AE13300BA
:102F90006746203BDF403B00202E05D04027BF1B6B
:102FA0006646BE40324390464646721E96413343C3
:102FB000DAE0002B00D114E26346134300D168E14C
:102FC00080234E07C008C9081B030643194208D0D6
:102FD0006046C008184204D163460100D2085E076B
:102FE0001643F3009946C900720F444D11434B46F6
:102FF000DE08424B4F073743CA089D4200D16EE0BE
:1030000012036D05120B6D0D00211203130B0A0D37
:1030100012051A433B4B2D0513402B435B00E4077D
:103020005B082343380019003CBC90469946A246F1
:10303000AB46F8BD6346134311D0731E002B00D07E
:1030400007E1861886428041614440420918012503
:103050000B0237D502257BE73E00614691463500DD
:10306000C5E75C46002D00D0E1E00B000343F3D040
:10307000731C00D1ACE1214B9F4200D13AE1F343F4
:10308000382B00DD6FE11F2B00DD8CE120250E00C9
:10309000ED1AAE40B0460600AA46DE40454635432E
:1030A0002E005546D940A8406346451EA8415B1AEC
:1030B0009C463043161AB242924163465242991AD4
:1030C0003D00B4E607223240002A00D0E4E60B4B74
:1030D000F6084F073743CA089D4200D090E73B00EF
:1030E000134300D1A6E180231B031A431203120BE2
:1030F000024D89E715000022002785E7FF07000041
:10310000FFFF7FFFFFFF0F80002E00D0C7E06B1C8A
:103110005E05760D012E00DCF0E0C84DAB4200D11B
:10312000B9E085180A008542894162444942511834
:103130000722CE076D082E43490832401D00A9E63C
:10314000BF49ED1A114007223240A3E63200283869
:103150008240002686E63000FDF796FB203073E6BD
:10316000634613435A1E9341C61AB04280414042FF
:10317000091A5CE60E00674606431743002D5ED130
:10318000002E00D0F3E0002F00D11EE15C46614626
:1031900091462CE7A94FBE427BD01E00F1E61000FD
:1031A0001F3DE840202B03D04021CB1A9A40164304
:1031B000731E9E410722064332400021002583E70B
:1031C000161A6346B2428041591A40420B1A984679
:1031D0005C4632E61F2E00DDABE02027BB1B9A4683
:1031E00063465746BB40994613004F46F3401F4382
:1031F0003B005746BA40571EBA4113436246F2405D
:10320000891898E62027BB1B9A4663465746BB4061
:10321000994613004F46F3401F433B005746BA40C0
:10322000571EBA4113436246F240891A9CE7834B0A
:103230009F425FD080252D047342294320E7002E52
:103240000CD1002F00D1D0E05C46614691467B4D09
:10325000CDE67A4FBE421CD01E0065E6002F18D086
:10326000C0084E0706438020C9080003014208D069
:103270006346DC08044204D12100DA46D2085E0726
:103280001643F300994601245346C900720F1143B7
:103290001C406A4DABE61D0000220027B4E6002D5D
:1032A00059D10B00034300D1D6E6731C00D1B2E024
:1032B000624B9F421ED0F343382B6FDC1F2B00DD87
:1032C00097E020250E00ED1AAE40B0460600AA4653
:1032D000DE40454635432E005546A840D940451EA0
:1032E000A8418C440643B61896429241514261442B
:1032F0003D0025E63D006146914678E60B0003431C
:10330000002D00D055E6002BF5D06346134300D1C5
:103310006DE68618864280416144404209180022C9
:103320000B0200D4D0E6464B01351940B2E5B14658
:103330005DE633006746203BDF403B00202E05D092
:103340004027BF1B6646BE40324390464646721E2B
:1033500096413343EFE5394B9F42CBD080252D0476
:1033600073422943A8E70843411E8841A2E6002F83
:1033700000D13CE66346861ACF1AB0429B415B42BD
:10338000FB1A98461B024ED5161A6346B24292416A
:10339000591A5242891A5C4600227BE501430E000D
:1033A000711E8E419FE71D000E00203DEE40B0468D
:1033B000202B04D04025EB1A99400843814648460B
:1033C0004346411E8841184374E60022002417E654
:1033D000161A6346B2429241591A5242891A3D0066
:1033E00025E561469146154D01E680220024120331
:1033F00079E61D000E00203DEE40B046202B04D0A3
:103400004025EB1A9940084381464E464346711EBB
:103410008E411E4367E7861896429B4161445B429A
:10342000C9183D008CE547463743CED007224146B8
:10343000324049E600273A00E6E5C046FF070000B3
:10344000FFFF7FFF70B50C4E0D031C0349005B00AE
:103450002D0B490D240B5B0DB14208D0064900200D
:103460008B4203D114432000441EA04170BD05438C
:103470000120002DFAD1F1E7FF07000030B5144D0F
:103480000A034B00120B5B0DC90F0024AB4211DD88
:10349000104CA34210DC8024640322430E4CE41A37
:1034A0001F2C0CDD0D48C31ADA4013005C420029C2
:1034B00000D11C00200030BD094BCC18FAE7094DA3
:1034C000E040AC4663449A4013000343EEE7C04635
:1034D000FE0300001D04000033040000130400007C
:1034E000FFFFFF7FEDFBFFFF70B500282DD0C31756
:1034F000C5185D40C40F2800FDF7C6F9154B1B1A0F
:103500005B055B0D0A2815DD0B38854000222D0375
:103510002D0B002110002D030A0D2D0B12052A433F
:103520000D4D1B052A4013435B00E4075B08234352
:10353000190070BD02002900153291400A000B21CC
:10354000081AC5402D032D0BE3E7002400230025B6
:103550000022DEE71E040000FFFF0F8010B5041EEE
:1035600025D0FDF791F9144B1B1A5B055B0D0A285A
:1035700012DD0B38844000222403240B00211000AC
:1035800024030A0D240B120522430C4C1B05224078
:1035900013435B00590810BD020021001532914011
:1035A0000A000B21081AC4402403240BE6E7002379
:1035B00000240022E2E7C0461E040000FFFF0F8047
:1035C0004100090E4B1C70B5DBB24602750AC40FF0
:1035D000012B14DDE0239B006D07360BCB18002177
:1035E0000A0D280012051C4D32435B052A405B087A
:1035F00013435B00E4075B082343190070BD0029F7
:1036000014D1002D1ED02800FDF73EF90A281CDC3D
:103610000B232A001B1ADA40030015339D400F4B81
:1036200012031B1A5B05160B5B0DD8E7002D06D0A5
:10363000320B802636036D071643094BCFE7084B44
:103640000026CCE700230026C9E703002A000B3B35
:103650009A400025E3E7C046FFFF0F808903000082
:10366000FF070000F0B54C00640D0B03621C5B0A01
:10367000460F5205C90F1E43C500520D012A29DD10
:10368000374BE718FE2F1CDC002F3BDD8001431E6B
:1036900098410722F3006D0F03432B431A40002A81
:1036A00004D00F221A40042A00D004338022D2040E
:1036B0001A4024D00137FAB2FF2F02D09B01580ADA
:1036C00001E0FF2200204002D205400AC907104352
:1036D0000843F0BD3543002C04D1002D0AD100224F
:1036E0000020F0E7002DECD08020C0033043FF2203
:1036F000E9E7002400235B02580AE2B2E3E7DB08B3
:103700003C00F8E73B001733F3DB80231B04334313
:103710001E26F61B1F2E14DD02225242D71B1A0052
:10372000FA401700202E04D00E4A94466444A34069
:103730001D432B005D1EAB4107223B431A4000276F
:10374000ADE7094A2800A218954093406C1EA54198
:10375000F04007222B4303431A4000279FE7C0464F
:1037600080FCFFFFA2FCFFFF82FCFFFF10B50029D9
:1037700003D1FDF789F8203002E0081CFDF784F83A
:1037800010BDC046F0B54E465746DE464546E0B54C
:103790000F00002183B006008946002F06DA3900A9
:1037A000002746428F41012149428946002B07DA12
:1037B0004946C943100089461900002342428B4103
:1037C00034003D0092469846BB4269D866D04146D7
:1037D0005046FFF7CBFF834639003000FFF7C6FFA6
:1037E0005B461B1A9C46203B9B4600D575E0514624
:1037F000584681400B005146604681400A00BB425A
:1038000061D85ED034003D005946A41A9D4100297C
:1038100000DA7AE00021002001260090019159464B
:103820008E400196614601268E4061460096002931
:1038300050D0D90756085F080E4363460EE0AF42EA
:1038400001D1A6420CD8A41BBD41012124196D4110
:103850000022013B64185541002B06D0AF42EED93F
:10386000013B24196D41002BF8D1009801995B466A
:1038700000196941002B3DDB2E00DE4063462C0021
:10388000DC405B46002B4BDB34005D46AC40230044
:103890006446A6403200801A994103E0B24296D9AC
:1038A000002000214B46002B04D003000C00002117
:1038B0005842A14103B03CBC90469946A246AB4653
:1038C000F0BDB1429ED900210020009001916146D7
:1038D0000029AED100980199E4E7202362465146C1
:1038E0009B1AD940404600916146884003000099E8
:1038F0000B4380E7624620239B1A2A009A40260049
:1039000013006246D6401E43B8E7614620260127D1
:10391000761A00200021F74000900191019781E77D
:103920006746202362463500BC409B1ADD402300D9
:103930002B43ADE7024670B50A4392072AD11E4DCC
:10394000EE0104C808C9541B9443344017D0D0B2C8
:10395000D9B2401A2106014310D190B299B2401A4F
:10396000210401430AD110021902000A090A401A6F
:103970002102014302D1100E190E401A70BD9A4265
:10398000DFD010BA19BA884201D9012070BD0020D9
:10399000C04370BD02780B7801300131002A09D094
:1039A0009A4207D102780B7801300131002A01D008
:0C39B0009A42EFD0D01A70BD0101010155
:0239BC00704752
:1039C000F7B50025114C26000135271D3C36019521
:1039D000019B0F2B0ED031683868FDF72BF9FC21C5
:1039E0008905FDF799FC019B01C701333060019304
:1039F0003C36EDE706492068FCF71EFF002801D0A1
:103A0000034B236040340F2DDDD1F7BDD03B0020A8
:043A1000FFE6DB2EC4
:103A140070B50500054C20000DF098FD2900044800
:103A240006F0C6FF20000DF0ADFD70BD703600201D
:043A340058330020E3
:0A3A380010B50C2214F058F810BD70
:103A44001F4BF7B51E685F681E4D1F4B04001A68B4
:103A54005B68A86AE96AFFF7ABF91C4A1C4BFEF7DE
:103A640035FF32003B0000900191286A696AFFF734
:103A74009FF9164A164BFEF729FF8022154BD205F3
:103A8400FEF724FFFFF7ECFD104A2060104B3000D6
:103A94003900FEF71BFF0FF08DFF80220D4BD2057E
:103AA400FEF714FF009A019BFEF710FFFFF7D8FD05
:103AB400094B60601968286BFDF75EFDA060F7BDD7
:103AC40090240020A024002098240020399D52A294
:0C3AD40046DF913FA654584154370020B3
:0E3AE00010B50400006808F077F8200010BD53
:103AF000F7B5016846688568C7680400081CFDF7CB
:103B00000BFC311C0190301CFDF706FC011C0198D8
:103B1000FDF790F8291C061C281CFDF7FDFB011C75
:103B2000301CFDF787F8391C051C381CFDF7F4FB29
:103B3000011C281CFDF77EF810F03EF90B49051C0E
:103B4000FCF77AFE002807D0FE239B0523600023A4
:103B5000E360A3606360F7BD260010362068291C6F
:103B6000FDF702FA01C4B442F8D1F4E777CC2B3266
:103B7000F0B587B0040007F0A9F8FA2706007F0126
:103B80001F4D280002F0A6FF002806D107F09EF87E
:103B9000801BB842F4D900202FE0280002F0A1FFDA
:103BA0000028F3D002AB01AA6946280002F0F0FE1B
:103BB00005AB04AA03A9280002F034FF11490098BC
:103BC000FDF7AAFB0F4920600198FDF7A5FB0D4901
:103BD00060600298FDF7A0FB0B49A0600398FDF719
:103BE0009BFB0949E0600498FDF796FB06492061BC
:103BF0000598FDF791FB60610120207607B0F0BDCC
:0C3C0000642A00200AE81C4135FA8E3CC2
:103C0C00F0B56F4DC3B02C78079008910992002C39
:103C1C0018D107F045F86B4B1B68C31A01936A4B1C
:103C2C001A78002A05D101321A7007F049F8674B4F
:103C3C001860674B019A9A4206D9012365482B708C
:103C4C00FFF7E2FE43B0F0BD07F03AF85F4A1368A5
:103C5C00C11AF7D40121C51A03D45F4C1B190C00EF
:103C6C00F9E7002C00D0136000225C4813000CA96B
:103C7C0000680C9207F06EFF0400831CE2D0002851
:103C8C00E0D10100D8220CA80C9F13F0BDFF544BBF
:103C9C0020001B68534A0293534B54491B68544CE5
:103CAC00039313AB455826181D600D18ED68F66B81
:103CBC00DD60156804305D62D56804321D6355699A
:103CCC00DD63156A9D641D00B0352E6004330C282D
:103CDC00E8D1484B48491868FDF718FB474B061CC0
:103CEC0045491868FDF712FB454B051C42491868FD
:103CFC00FDF70CFB8446434B1888434B1B880593FC
:103D0C00424B19886378049323790693226A636A79
:103D1C003A923B93A26AE36A3C923D93236B8024D4
:103D2C003E93019B24060D93079BBD220E93089B8B
:103D3C000F93099B2D941093029B354C1193039B6D
:103D4C002F9412936346334C1B933294324C199636
:103D5C0033943494314C1A953594369437AC208086
:103D6C00B6200AABC0186B469B8A038038A801802A
:103D7C00BA210AABC9186B4629481B7C088039A9A3
:103D8C000B700AABD2186B461B7E0CA91370380053
:103D9C00D82213F0A7FE234B0AA9186800231A0097
:103DAC000A9707F097FE002800D14BE70B4B002237
:103DBC00186801230BA95B420B9707F08BFE41E7B8
:103DCC006E5D0020F03A00206F5D00201C4F00203B
:103DDC007FEE36004AD5011050C30000644D002020
:103DEC00483B0020A03B0020F43A0020743B00200C
:103DFC00A0240020F4480020E12E6542584D0020FC
:103E0C00F04800205C0200204E0200204C020020F2
:103E1C000000C0C00000C0400000BE420000B44220
:083E2C00DC050000B8340020A1
:103E3400F0B53F4B85B09D681A68291C281C5C6846
:103E44000192DE68FDF766FA211C0290201CFDF742
:103E540061FA0299FCF7ECFE011CFCF7E9FE011C77
:103E6400FE208005FDF788FB211C03900198FDF7D7
:103E740051FA311C071C281CFDF74CFA011C381C94
:103E8400FCF7D6FE011CFCF7D3FE03990FF08EFF5E
:103E9400284B291C18600198FDF73CFA311C071CBB
:103EA400201CFDF737FA011C381CFDF765FB011CCB
:103EB400FCF7BEFE2049071CFCF7BCFC002832D1ED
:103EC400FE21381C8905FCF7C9FC00282DD1381CBB
:103ED4000FF01AFF194B311C1860301CFDF71AFA49
:103EE4000299FCF7A5FE011CFCF7A2FE011CFE20B2
:103EF4008005FDF741FB311C071C0198FDF70AFA08
:103F0400291C061C201CFDF705FA011C301CFCF7BB
:103F14008FFE011CFCF78CFE391C0FF047FF084B89
:103F2400186005B0F0BD044FD1E7FE27BF05CEE70A
:103F3400903B0020F4480020000080BF584D002032
:043F4400F048002021
:103F4800F7B5434D04000E0001682868FDF7E0F955
:103F58006168071C6868FDF7DBF9011C381CFDF770
:103F680009FBA168071CA868FDF7D2F9011C381CD9
:103F7800FDF700FBE168071CE868FDF7C9F9011CBB
:103F8800381CFDF7F7FA306021686868FDF7C0F95A
:103F98002F6861680090381CFDF7BAF9011C009879
:103FA800FCF744FEE1680090A868FDF7B1F9011C30
:103FB8000098FCF73BFEA1680090E868FDF7A8F9B7
:103FC800011C0098FDF7D6FA70606B68A168381C70
:103FD8000093FDF79DF9E16801900098FDF798F9C5
:103FE800011C0198FDF7C6FA21680190A868FDF741
:103FF8008FF9011C0198FCF719FE61680190E868C7
:10400800FDF786F9011C0198FCF710FEB060E16825
:10401800381CFDF77DF9A168071C0098FDF778F9B1
:10402800011C381CFCF702FE6168071CA868FDF734
:104038006FF9011C381CFDF79DFA2168071CE86818
:10404800FDF766F9011C381CFCF7F0FDF060F7BDC0
:04405800903B002079
:10405C00F0B5BBB001910293019B06005D006D08A9
:10406C007149281C171CFDF747FC002800D0D8E02C
:10407C006D49281CFCF7EEFB002800D0D1E07C0039
:10408C0064086949201CFDF737FC002800D0C8E003
:10409C00201C6549FCF7DEFB041E00D0C1E0281C87
:1040AC000299FCF7D7FB2300051E00D0B6E05F4C4D
:1040BC00731C9B011959381CFCF7B6FD5C49071C95
:1040CC00FCF7B4FB2B00002800D0A7E0B300029350
:1040DC003C2305005E430F236B43029A391C9B184B
:1040EC001B19186CFCF73AFF242204AB9B1858518F
:1040FC00AB191B191B6C3C32039304AB9B18039A32
:10410C00011C5A510198FDF701F92BABE85004350D
:10411C003C2DE0D1FE23FC219B0589052B980593B2
:10412C00FDF7F4F8FC21069089052C98FDF7EEF8C4
:10413C00FC21079089052D98FDF7E8F8089005A853
:10414C00FFF7D0FC09A905A8FFF7F8FE099B200092
:10415C0023600A9B260063600B9B00250193A360E0
:10416C000C9BE360FFF7BEFC2E992069FCF75CFD0D
:10417C0031992061E069FCF757FD3499E061A06A40
:10418C00FCF752FD3799A062606BFCF74DFD2F993F
:10419C0060636069FCF748FD32996061206AFCF746
:1041AC0043FD35992062E06AFCF73EFD3899E062E8
:1041BC00A06BFCF739FD3099A063A069FCF734FDC6
:1041CC003399A061606AFCF72FFD36996062206B11
:1041DC00FCF72AFD39992063E06BFCF725FDE063C1
:1041EC002421002404AAAB005218D3580193602256
:1041FC0004AB9B1819590198FDF788F83719011C65
:10420C00386CFDF7B5F9043438643C2CEFD101352A
:10421C003C360F2DE4D1FFF7CDFB012318003BB04A
:10422C00F0BD0023FAE7C046FFFF7F7F903B0020E4
:04423C005F708930F6
:10424000F0B5434C87B06378002B2AD0A378002BBD
:1042500027D000253F4EA5703378AB4226D1E378B6
:104260003D4D022B1FD92379052B1CD93B49606B8F
:10427000FCF7ECFA002816D02B780133DBB22B7058
:10428000022B0ED9216A626A354B19605A60A16A05
:10429000E26A344B19605A60334B226B1A60012377
:1042A000337007B0F0BD00232B70FAE76846FFF7C4
:1042B000C9FBFF21606B89050FF0B4FC2B49071C7B
:1042C000A06B0FF0AFFC8022E36B12060393236C0C
:1042D000061C0493636C9B180593254CAB001A19BC
:1042E000116903AA9858FDF749F9224B011C224A8B
:1042F000E81C0135FFF7B2FE032DEED1391C381C46
:10430000FDF70AF8E169051C0098FDF737F92A1C4A
:10431000011C1A4B0620FFF7A1FE216A0198FDF748
:104320002DF92A1C154B011C0720FFF797FE311CA5
:10433000301CFCF7F1FF616A051C0298FDF71EF9BD
:104340000E4B011C2A1C0820FFF788FEA9E7C04677
:10435000A02400206D5D0020F35D0020000040409F
:104360009024002098240020543700200000204092
:10437000903B00200000C84147E1FA3D0000C842E0
:10438000F0B50024B3B0E14FE14D00902B19E619D0
:10439000B16AD868FDF7F2F80EABE050716B605966
:1043A000FDF7ECF80C220EAB9B1818510434944224
:1043B000ECD10E9B01930F9B01990293109B081C5B
:1043C0000393FCF7A9FF0299041C081CFCF7A4FF47
:1043D000011C201CFCF72EFC0399041C081CFCF794
:1043E0009BFF011C201CFCF725FC0FF0E5FCC949D4
:1043F000041CFCF721FA002800D19BE2FE23FC21DB
:104400009B05890501982093FCF786FF0099FCF72E
:1044100083FFFC21219089050298FCF77DFF00991C
:10442000FCF77AFFFC21229089050398FCF774FFC2
:104430000099FCF771FF29A9239020A8FFF784FDBC
:10444000B24C299B200023602A9B63602B9BA360B6
:1044500004932C9BE360FFF74BFBA5682368291CA2
:10446000281C0493FCF758FF6768E4680590211C3A
:10447000201CFCF751FF011C06900598FCF7DAFBA5
:10448000011CFCF7D7FB011CFE208005FDF776F828
:10449000291C07901790381CFCF73EFF211C061CB6
:1044A0000498FCF739FF011C0890301CFDF766F8F2
:1044B000011CFCF7BFFB211C09901890381CFCF76D
:1044C0002BFF291C0A900498FCF726FF011C0B9077
:1044D0000A98FCF7AFFB011CFCF7ACFB08990C90A9
:1044E0001990301CFCF7A6FB011CFCF7A3FB391C40
:1044F00008901A90381CFCF70FFF061C011C069848
:10450000FCF798FB011CFCF795FB011CFE208005C5
:10451000FDF734F8211C06901B90281CFCF7FCFECC
:10452000391C041C0498FCF7F7FE071C011C201C16
:10453000FDF724F8011CFCF77DFB0B990D901C90F6
:104540000A98FDF71BF8011CFCF774FB391C0A9054
:104550001D90201CFCF76EFB011CFCF76BFB311C53
:104560000B901E900598FCF765FB011CFCF762FBA5
:10457000011CFE208005FDF701F8129B119F04939A
:10458000139B041C07991F90381C0593FCF7C4FE6D
:104590000999061C0498FCF7BFFE011C301CFCF7AF
:1045A00049FB0C99061C0598FCF7B6FE011C301C53
:1045B000FCF740FB08991490381CFCF7ADFE0699F7
:1045C000061C0498FCF7A8FE011C301CFCF732FB0B
:1045D0000D99061C0598FCF79FFE011C301CFCF78A
:1045E00029FB14AD68600A99381CFCF795FE0B99FD
:1045F000061C0498FCF790FE011C301CFCF71AFB0B
:10460000211C061C0598FCF787FE011C301CFCF7DA
:1046100011FB4149FCF7B2FF0026404CA86007950A
:10462000FC21079B8905F3582568181C0693FCF7A5
:1046300073FE0099FCF770FE0099FCF76DFE291CD3
:1046400008900098FCF768FE011C0898FCF7F2FA45
:10465000011CE068FCF7EEFA0699E0600098FCF7B0
:104660005BFE291CFCF7E6FA043601C40C2ED7D1F8
:1046700000222B49002300209A4201D1FE20800510
:104680009C00013308510F2BF5D101323C310F2A28
:10469000F0D1802515322D06002120A813F0BAFA9A
:1046A000AC46039B29AC5B192193029B24222293E5
:1046B000039B00212393019B20005B192593029B00
:1046C00017AE63442693019B279313F0A3FAAC46DD
:1046D000059BE7615B196360049BA360059BE36036
:1046E0007B196361049B0E4F6344A36120AB02936B
:1046F0000023049401933C0000253368B4340793ED
:1047000073680693B36805930CE0C046903B0020A5
:10471000743B002077CC2B320AE81C41A03B0020E0
:104720006C3F0020802212069446029B00995B5940
:10473000039363441800FCF7EFFD011C7859FCF764
:1047400079FA049B7851E9580798FCF7E5FD0021B8
:10475000FCF770FA049B08905B19D96806980393DC
:10476000FCF7DAFD0899FCF765FA039B0890996954
:104770000598FCF7D1FD0899FCF75CFA80231B062D
:10478000C0180099FCF7C8FD011C2068FCF752FA1C
:10479000802372591B0620600099D018FCF7BCFDDD
:1047A000011C206BFCF746FA0435206304340C2D01
:1047B000B8D1019B6F4A00999D18686AFCF7DEFE2C
:1047C00068627535FF3528680099FCF733FA029B5B
:1047D00028600C330293019B3C3740330C36019325
:1047E000C02B88D1644B634D019304930026634B27
:1047F00002930393002700243C236343039AD318B6
:10480000A200A958186CFCF787FD011C381CFCF7A6
:1048100011FA0134071C0F2CEED1049B9851039B15
:104820000436043303933C2EE4D1049B3C353C33E3
:104830000493534B9D42D9D1524F039700254D4EBF
:10484000002300240493019B31591859FCF764FD9F
:10485000011C0498FCF7EEF9043404903C2CF2D1CE
:10486000039AAB000135D0503C360F2DE8D1130030
:104870003C330393019B3C330193019A424B934297
:10488000DCD142490098FCF747FD4149039000986C
:10489000FCF742FD011C01900098FCF73DFD0099DA
:1048A000FCF73AFD3B4904900098FCF735FD3A4986
:1048B00005900098FCF730FD00250090314B0399DE
:1048C000EC182068FCF7B6F926002060C036306886
:1048D0000199FCF7AFF93060C03630680499FCF7F5
:1048E000A9F990239B003060E61830680599FCF721
:1048F000A1F9C0239B00E418306020680099FCF700
:1049000099F940352060C02DD8D1E1239B00FA18D9
:1049100000230299F858C918043308643C2BF8D1D5
:10492000029B3C373C330293BA42F1D1FFF748F87F
:1049300033B0F0BDFC21201C8905FCF7EDFC00998B
:10494000FCF7EAFC051C0FF0A3F9211CFCF70CFB9B
:10495000041C281C0FF0DEF8211C20900198FCF7A5
:10496000DBFC211C21900298FCF7D6FC211C229034
:1049700003985EE56C3F0020F8480020903B002043
:10498000F0420020603700207C4C0020FAED6B39AB
:0C499000DDB5043D76CC2B35B5FE1638A5
:10499C00474BF7B55C681F68211C201C9D68FCF711
:1049AC00B5FC291C0090281CFCF7B0FC391C0190AC
:1049BC00381CFCF7ABFC0099FCF736F90199FCF7B5
:1049CC0033F90FF0F3F93B49061CFBF72FFF0028D6
:1049DC006DD1301C3849FBF73DFF061E67D1291CF1
:1049EC00201C0FF0DFF90199041C0098FCF71CF94E
:1049FC000FF0DCF980231B06011CF8180FF0D2F91C
:104A0C00071CFFF711FA2D4B201C1968FCF7B0FDA1
:104A1C00FEF7D0FD2A4A2B4B04000D00FDF72CF8B5
:104A2C00274A294BFDF744FBFEF716FE0FF0AAF8B8
:104A3C00FEF7C0FD224A244BFDF744FF02000B0099
:104A4C0020002900FEF7B0F9FEF706FE1F4A011CF4
:104A5C001F4B3000FFF7FCFAFFF7E6F91D4B381C33
:104A6C001968FCF785FDFEF7A5FD154A154B0400EA
:104A7C000D00FDF701F8124A134BFDF719FBFEF779
:104A8C00EBFD0FF07FF8FEF795FD0D4A0E4BFDF791
:104A9C0019FF02000B0020002900FEF785F9FEF734
:104AAC00DBFD0B4B011C094A0120FFF7D1FAF7BDC6
:104ABC00743B0020CBA9004149263941F448002021
:104ACC00182D4454FB210940FB211940B1AB333B59
:084ADC00F366DF3E584D002097
:064AE4000023C3607047CF
:044AEA000C307047D5
:0C4AEE0010B5FFF7FBFF0023036010BDB4
:0E4AFA00C36810B5002B01D09B68984710BD13
:104B0800F7B5224F0C003B780192002B3DD1FCF702
:104B18002BFF1F4B061C18602000FCF725FF1D4DBE
:104B28001D4C28600198FCF71FFF2060301CFCF723
:104B3800FBFE1A4E0100300002F040FC2868FCF72A
:104B4800F3FE174D0100280002F038FC2068FCF73E
:104B5800EBFE144C0100200002F030FCFA22124B4C
:104B680052000521300002F0B9FBFA220E4B520028
:104B78000421280002F0B2FBFA220B4B5200032159
:104B8800200002F0ABFB01233B70F7BDB15D0020B4
:104B9800500200205402002058020020675D0020C7
:0C4BA800F55D00206A5D0020C4090000DB
:0E4BB40010B504000021FFF793FF200010BD94
:0C4BC20010B50400FFF798FF200010BDA4
:104BD00010B5040086B008220021684613F01AF8C8
:104BE000231D0493C0235B00059323008533FF330B
:104BF000029334236A4604211820039306F05AFFD7
:104C00002060002804D15122034904480BF056FDCE
:104C1000200006B010BDC046E0D50110E8D5011057
:104C200010B5044B0822C3600B68002108C012F0C5
:084C3000F1FF10BDE4D20110F8
:104C380013B504000191002903D1FFF754FF2000A8
:0A4C480016BD01A9FFF7E8FFF9E728
:084C520010B50368984710BD7E
:084C5A0010B5FFF7F9FF10BDD2
:104C640073B5234D2800FFF7B1FF224C224E2200DA
:104C7400310028000CF04CF8204D2800FFF7A6FF67
:104C84002200310028000CF043F81D4D1D4B1E4836
:104C94002B60FFF78DFF00211C480CF0B3FC1C486F
:104CA4000CF04CFC002380220093280052011821B0
:104CB4000CF026FD2200174928000CF029F8164DA7
:104CC40028000CF03BFC2200144928000CF020F8CA
:104CD400134801F017FB134802F0FAFA124802F0E5
:104CE400F7FA124802F0F4FA114802F0F1FA73BD2F
:104CF400B834002048020020E13A0010644D00203E
:104D04009436002098F2011098360020D436002002
:104D1400E83600208117011070360020B915011003
:104D24007C4C0020F55D00206A5D0020675D00205A
:044D3400F85D002006
:104D3800E121F0B5BE4C95B04902200004F072FAAA
:104D480005F0B0FF0500200004F084F8002809D120
:104D580005F0A8FFB74B401B984203D80A2005F07E
:104D6800BBFFF0E70125B4480CF0EEFBB349200087
:104D780005F00BFEB249200005F022FEB1492000E3
:104D880005F003FE0022B04B0095200005F046FF19
:104D9800AE49200005F0F9FDAD4B0022009520003A
:104DA80005F03CFFAB49200005F0EFFD0A22002189
:104DB800200005F056FEA849200005F0E6FD002277
:104DC800A64B0095200005F029FF2C21200005F0B6
:104DD800E0FD0022A24B0095200005F01FFFA1492D
:104DE800200005F0D2FD9D4B00220095200005F023
:104DF8001BFF9D49200005F0C8FD0A220021200064
:104E080005F02FFE9949200005F0D0FD98492000B3
:104E180005F0CCFD88480CF0B3FB964801F0C2FEC3
:104E2800954E002803D19548FEF7F0FD3570022114
:104E38000E2005F077FF02210F2005F073FF0221F5
:104E4800102005F06FFF00228D4B8E490DA81A70B7
:104E5800FFF7EEFE0DA98C480CF0BAFC0DA8FFF781
:104E6800ACFEC82005F038FF8848FEF7CFFD35783E
:104E7800002D00D0BAE10C22290007A812F0C6FEC6
:104E88000C2229000AA812F0C1FEFA235B00049341
:104E980003950DAD1C220021280012F0B7FE280052
:104EA800FEF762FE002847D00D996E68081CFCF7D3
:104EB8002FFA311C0590301CFCF72AFA011C0598C2
:104EC800FBF7B4FEAF68061C391C381CFCF720FA47
:104ED800011C301CFBF7AAFE0EF06AFF6C49061C89
:104EE800FBF7A6FC002800D090E06A49301CFBF7CD
:104EF800B3FC002800D089E00600059507AF059BA4
:104F0800F0599B19DD68291CFBF790FE291CF0510C
:104F1800281C1825FCF7FCF904AB5B19011C9859EF
:104F2800FBF784FE04AB5B19985104360C2EE6D1CE
:104F3800039B01339BB20393042005F0CDFE049B31
:104F4800013B9BB20493002BA3D1039BF92B5DD9A2
:104F5800049D514E0398FCF751FD0C2204AB9B189D
:104F6800071C011C5859FBF7FBFF0AAB391C0490BE
:104F7800A851E858FBF7F4FF0499071C081CFCF734
:104F8800C7F9011C381CFCF7F5FA049B071C5800EC
:104F980040084249FBF760FC002837D14049381CDB
:104FA800FBF75AFC002831D104350C2DD2D1224808
:104FB8000CF0CAFA3B49200005F0E7FC3068FEF720
:104FC800FBFA072502000B000095200005F026FEDD
:104FD8002C21200005F0DDFC7068FEF7EDFA009545
:104FE80002000B00200005F019FE2C21200005F01E
:104FF800D0FCB068FEF7E0FA009502000B00200034
:1050080005F012FE0C480CF0BBFA02E02648FEF749
:10501800FDFC1C2200210DA812F0F8FD0DA8FEF7DA
:10502800A3FD002842D10A3005F056FEF6E7C04637
:1050380058330020DB050000703600204FD70110E0
:1050480071D5011073D701100000544088D70110A2
:105058000000344094D70110A1D70110000014407B
:1050680000000840C1D70110D1D70110EED70110B8
:1050780030D80110642A0020B05D00206ED80110DD
:10508800FB5D00205952001094360020B1D8011061
:10509800CBA9004149263941E43A00209999993D24
:1050A800DCB5043B1CD90110DED801100E9F0F9D02
:1050B800381C291C0D9C0EF077FE391C061C381C68
:1050C800FCF726F9291C071C281CFCF721F9011CF0
:1050D800381CFBF7ABFD0EF06BFE80231B06011C92
:1050E800E0180EF061FEFC21041C8905301CFCF759
:1050F8000FF9051C0EF00AFD061C281C0EF0C4FD55
:10510800FC21051C8905201CFCF702F9041C0EF083
:10511800FDFC071C201C0EF0B7FD391C0390301C49
:10512800FCF7F6F83D4C391C2060281CFCF7F0F819
:1051380003996060301CFCF7EBF880221206944655
:10514800039B291C6344A0601800FCF7E1F8E060A9
:105158002000FEF7C9FC00210022314B314D081C0C
:10516800565904321960D9609E61596204330C2A79
:10517800F6D1E12223009200A518002291005918C7
:10518800013208640F2AF9D13C33AB42F5D126002D
:10519800FE20FC368005E02370607064802622497A
:1051A800224A5B00E150B600C033A151E250C0363C
:1051B8001F4BA251D027C036A35126001D4DBF005A
:1051C800E351C036271D2564FD673560C0256D0095
:1051D8006051902080002150C02189006250F02247
:1051E8009200A350F12301229B00E2540122962051
:1051F800114B524240009A6105F06EFD05F052FDD8
:105208000E4B186005F05EFD0D4B18600D4BC21873
:105218000D4B1A600D4B186015B0F0BD903B002087
:10522800A03B0020E43A00200000104117B7D13A13
:10523800EC51B83D0FB59F3CA0240020F03A002067
:1052480058370020D43000005C3700201C4F002065
:10525800F0B501250024D8269FB06D42924B934AA1
:105268001868330063439B18079300222B0007A993
:10527800013406F031FC182CF0D101210A2005F088
:1052880051FD01210A2005F08BFD894801F09CFFA2
:10529800C827642005F020FD05267F00854C0A21DB
:1052A800200002F06BFA051E029005D13800013E7D
:1052B80005F012FD002EF1D10CAE300002F07CF9A1
:1052C8000123002D00D0AEE27B4A7C481370FEF724
:1052D8009DFB0023049303930123002278485B423B
:1052E80008A90068089206F037FC831C00D197E2F1
:1052F800002800D094E2029B089C002B00D186E293
:105308000CA802F098F90590002800D17FE2049BD0
:10531800002B00D07BE20A2261680CA805F0ABFBE9
:105328002C210CA805F035FB0A22A1680CA805F071
:10533800A2FB2C210CA805F02CFB0A22E1680CA882
:1053480005F099FB2C210CA805F023FB0A22216902
:105358000CA805F090FB2C210CA805F01AFB0A22DA
:1053680061690CA805F087FB2C210CA805F011FB3E
:105378000A22A1690CA805F07EFB25002C210CA8A7
:10538800260005F006FB1C35283601CDFEF714F97A
:105398000B000521020000910CA805F03FFC2C2110
:1053A8000CA805F0F6FAB542EFD12500260006272D
:1053B8002835343601CDFEF7FFF8009702000B00C0
:1053C8000CA805F02BFC2C210CA805F0E2FAAE4243
:1053D800F0D1606BFEF7F0F8032502000B00009592
:1053E8000CA805F01BFC2C210CA805F0D2FAA06B28
:1053F800FEF7E2F8009502000B000CA805F00EFC81
:105408002C210CA805F0C5FAE06BFEF7D5F800953D
:1054180002000B000CA805F001FC25002C210CA8AB
:10542800260005F0B6FA042740354C3601CDFEF7C4
:10543800C3F8009702000B000CA805F0EFFB2C2125
:105448000CA805F0A6FAAE42F0D1250026000427E4
:105458004C35583601CDFEF7AFF8009702000B0027
:105468000CA805F0DBFB2C210CA805F092FAAE4243
:10547800F0D12500260007275835643601CDFEF700
:105488009BF8009702000B000CA805F0C7FB2C2125
:105498000CA805F07EFAAE42F0D1250026000627BA
:1054A800643570360EE0C046644D00205010002070
:1054B8008C2A0020884F0020005E0020F0D20110C6
:1054C800B834002001CDFEF777F8009702000B00F2
:1054D8000CA805F0A3FB2C210CA805F05AFAB5423C
:1054E800F0D1206FFEF768F8052502000B00009543
:1054F8000CA805F093FB2C210CA805F04AFA606F64
:10550800FEF75AF8009502000B000CA805F086FB80
:105518002C210CA805F03DFAA06FFEF74DF8023DCE
:1055280002000B0000950CA805F078FB2C210CA8B4
:1055380005F02FFAE06FFEF73FF8009502000B0028
:105548000CA805F06BFB2C210CA805F022FA231DF2
:10555800D86FFEF731F8009502000B000CA805F093
:105568005DFB2C210CA805F014FA23000833D86F32
:10557800FEF722F8009502000B000CA805F04EFB80
:105588002C210CA805F005FA230088331868FEF7CB
:1055980013F8009502000B000CA805F03FFB2C2126
:1055A8000CA805F0F6F923008C331868FEF704F808
:1055B800042602000B0000960CA805F02FFB2C21F6
:1055C8000CA805F0E6F9230090331868FDF7F4FFFE
:1055D800009602000B000CA805F020FB2C210CA85B
:1055E80005F0D7F9230094331868FDF7E5FF009616
:1055F80002000B000CA805F011FB2C210CA805F0EB
:10560800C8F9230098331868FDF7D6FF0096020002
:105618000B000CA805F002FB2C210CA805F0B9F929
:1056280023009C331868FDF7C7FF023E02000B00F9
:1056380000960CA805F0F2FA2C210CA805F0A9F99F
:105648002300A0331868FDF7B7FF009602000B008F
:105658000CA805F0E3FA2C210CA805F09AF9230010
:10566800A4331868FDF7A8FF009602000B000CA8E9
:1056780005F0D4FA2C210CA805F08BF92300A833E7
:105688001868FDF799FF009602000B000CA805F0BA
:10569800C5FA2C210CA805F07CF92300AC33198835
:1056A8000A220CA805F0D9F92C210CA805F071F9EB
:1056B8002300AE3319880A220CA805F0CEF92C2154
:1056C8000CA805F066F92300B03319880A220CA843
:1056D80005F0C3F92C210CA805F05BF9230026007E
:1056E800B23319880A220CA805F0B7F9B4362C2170
:1056F8000CA805F04EF931780A220CA805F0ADF98E
:105708002C210CA805F045F93378002B00D1DDE0F9
:105718002300B53319780A220CA805F0B8F92C2112
:105728000CA805F036F923000726B8331A685B6819
:105738000CA8009605F072FA2C210CA805F029F99E
:105748002300C0331A685B680CA8009605F066FA57
:105758002C210CA805F01DF92300C8331868FDF7A3
:105768002BFF009502000B000CA805F057FA2C211E
:105778000CA805F00EF92300CC331868FDF71CFFC0
:10578800009502000B000CA805F048FA2C210CA883
:1057980005F0FFF82300D0331868FDF70DFF0095DA
:1057A80002000B000CA805F039FA2C210CA805F012
:1057B800F0F82300D4331868FDF7FEFE00950200C8
:1057C8000B000CA805F030FA039B0A2101331800DE
:1057D8000393FAF7D5FE002902D10CA801F098FE30
:1057E8000D9B002B13D03C490CA805F0CEF80A22DB
:1057F80003990CA805F04FF90CA801F089FE0CA834
:1058080001F00CFF3548FEF701F9059B0493344B72
:1058180000221868012315A95B42159406F05CF96B
:105828000BF034FF58E500272E4D2B701021009700
:105838002D4B2E4A08A812F08FFC08A9200002F070
:1058480079F8002822D115AF172308AA21003800BB
:1058580002F02AF8169B7360BB68B360FB68F360BC
:105868001023FA5CF25401331D2BFAD13B6A3362E0
:10587800300001F0E0FE029000280CD16B460122B6
:105888001B7A1B482B701B4B1A7020E51A4B0137EB
:105898009F42CBD1ECE71949300005F087F830007A
:1058A80001F036FE164C20000BF04EFE154D164941
:1058B800280005F06AF8300001F08CFE010028008D
:1058C80005F07EF820000BF05BFE02E50F490CA8FE
:1058D80005F06CF878E7C046F7D4011018D5011028
:1058E800644D0020015E002071D5011024D3011001
:1058F80030D30110005E0020E703000058D30110E8
:105908007036002058330020DAD40110F0D401108A
:10591800F8B53E4D280003F095FB3D4C002807DD07
:10592800280003F017FCC1B2200000F087FFF0E761
:105938006378002B69D0374D237800266B700123DC
:10594800AB70230089331E70230090331B6820003E
:105958002B7100F093FD28626962200000F0B2FD0F
:10596800230079331E70231DA862E962D86FFDF702
:10597800B7FD0022284BFCF79DFBFDF76FFE2300C7
:1059880099331E702300A03328631868FBF7ECFFD7
:105998002249FBF7E5FAFF2168638905FBF7B8FCA4
:1059A80023005933A8631E70206EFDF799FD1C4A29
:1059B8001C4BFCF789FF0022174BFCF77BFBFDF71C
:1059C8004DFE23006933071C1E70206FFDF788FD0C
:1059D8000022114BFCF76EFBA022134B1206FCF7BA
:1059E80073FFFDF73BFE041C0EF090F8011C381CF9
:1059F800FBF78EFCE863201C0EF046F9011C381CEE
:105A0800FBF786FC002328646B64F8BDB02F0020E8
:105A18007C4C0020A0240020000059400000C8420F
:0C5A2800CF16AD2F5476E03F46DF913FD3
:105A3400F0B5544D87B0040053492868FAF7F4FED2
:105A4400002803D02000FBF791FF28602868FBF7AB
:105A54006DFFA04205D1FA20800005F03FF907B0A0
:105A6400F0BD201AFBF782FF4849FBF77BFA0127B8
:105A740002903800FBF77AFF0299FBF74BFCFBF727
:105A840055FFFBF773FF2968061CFBF7D1F8FBF7FA
:105A94004DFF01003E4801F093FC2968301CFBF7E0
:105AA400C7F8FAF77BFF3B4B18803B4B1868FBF7B2
